{
  "contractName": "CrossPunksDex",
  "abi": [
    {
      "inputs": [
        {
          "internalType": "address",
          "name": "crosspunks",
          "type": "address"
        }
      ],
      "stateMutability": "nonpayable",
      "type": "constructor"
    },
    {
      "anonymous": false,
      "inputs": [
        {
          "indexed": false,
          "internalType": "address",
          "name": "operator",
          "type": "address"
        },
        {
          "indexed": false,
          "internalType": "address",
          "name": "_from",
          "type": "address"
        },
        {
          "indexed": false,
          "internalType": "uint256",
          "name": "tokenId",
          "type": "uint256"
        }
      ],
      "name": "ERC721Received",
      "type": "event"
    },
    {
      "anonymous": false,
      "inputs": [
        {
          "indexed": true,
          "internalType": "uint256",
          "name": "punkIndex",
          "type": "uint256"
        },
        {
          "indexed": false,
          "internalType": "uint256",
          "name": "value",
          "type": "uint256"
        },
        {
          "indexed": true,
          "internalType": "address",
          "name": "fromAddress",
          "type": "address"
        }
      ],
      "name": "PunkBidEntered",
      "type": "event"
    },
    {
      "anonymous": false,
      "inputs": [
        {
          "indexed": true,
          "internalType": "uint256",
          "name": "punkIndex",
          "type": "uint256"
        },
        {
          "indexed": false,
          "internalType": "uint256",
          "name": "value",
          "type": "uint256"
        },
        {
          "indexed": true,
          "internalType": "address",
          "name": "fromAddress",
          "type": "address"
        }
      ],
      "name": "PunkBidWithdrawn",
      "type": "event"
    },
    {
      "anonymous": false,
      "inputs": [
        {
          "indexed": true,
          "internalType": "uint256",
          "name": "punkIndex",
          "type": "uint256"
        },
        {
          "indexed": false,
          "internalType": "uint256",
          "name": "value",
          "type": "uint256"
        },
        {
          "indexed": true,
          "internalType": "address",
          "name": "fromAddress",
          "type": "address"
        },
        {
          "indexed": true,
          "internalType": "address",
          "name": "toAddress",
          "type": "address"
        }
      ],
      "name": "PunkBought",
      "type": "event"
    },
    {
      "anonymous": false,
      "inputs": [
        {
          "indexed": true,
          "internalType": "uint256",
          "name": "punkIndex",
          "type": "uint256"
        }
      ],
      "name": "PunkNoLongerForSale",
      "type": "event"
    },
    {
      "anonymous": false,
      "inputs": [
        {
          "indexed": true,
          "internalType": "uint256",
          "name": "punkIndex",
          "type": "uint256"
        },
        {
          "indexed": false,
          "internalType": "uint256",
          "name": "minValue",
          "type": "uint256"
        },
        {
          "indexed": true,
          "internalType": "address",
          "name": "toAddress",
          "type": "address"
        }
      ],
      "name": "PunkOffered",
      "type": "event"
    },
    {
      "anonymous": false,
      "inputs": [
        {
          "indexed": true,
          "internalType": "address",
          "name": "from",
          "type": "address"
        },
        {
          "indexed": true,
          "internalType": "address",
          "name": "to",
          "type": "address"
        },
        {
          "indexed": false,
          "internalType": "uint256",
          "name": "punkIndex",
          "type": "uint256"
        }
      ],
      "name": "PunkTransfer",
      "type": "event"
    },
    {
      "anonymous": false,
      "inputs": [
        {
          "indexed": true,
          "internalType": "address",
          "name": "from",
          "type": "address"
        },
        {
          "indexed": true,
          "internalType": "address",
          "name": "to",
          "type": "address"
        },
        {
          "indexed": false,
          "internalType": "uint256",
          "name": "value",
          "type": "uint256"
        }
      ],
      "name": "Transfer",
      "type": "event"
    },
    {
      "inputs": [],
      "name": "marketPaused",
      "outputs": [
        {
          "internalType": "bool",
          "name": "",
          "type": "bool"
        }
      ],
      "stateMutability": "view",
      "type": "function",
      "constant": true
    },
    {
      "inputs": [
        {
          "internalType": "uint256",
          "name": "",
          "type": "uint256"
        }
      ],
      "name": "punkBids",
      "outputs": [
        {
          "internalType": "bool",
          "name": "hasBid",
          "type": "bool"
        },
        {
          "internalType": "uint256",
          "name": "punkIndex",
          "type": "uint256"
        },
        {
          "internalType": "address",
          "name": "bidder",
          "type": "address"
        },
        {
          "internalType": "uint256",
          "name": "value",
          "type": "uint256"
        }
      ],
      "stateMutability": "view",
      "type": "function",
      "constant": true
    },
    {
      "inputs": [
        {
          "internalType": "uint256",
          "name": "",
          "type": "uint256"
        }
      ],
      "name": "punksOfferedForSale",
      "outputs": [
        {
          "internalType": "bool",
          "name": "isForSale",
          "type": "bool"
        },
        {
          "internalType": "uint256",
          "name": "punkIndex",
          "type": "uint256"
        },
        {
          "internalType": "address",
          "name": "seller",
          "type": "address"
        },
        {
          "internalType": "uint256",
          "name": "minValue",
          "type": "uint256"
        },
        {
          "internalType": "address",
          "name": "onlySellTo",
          "type": "address"
        }
      ],
      "stateMutability": "view",
      "type": "function",
      "constant": true
    },
    {
      "inputs": [
        {
          "internalType": "bool",
          "name": "_paused",
          "type": "bool"
        }
      ],
      "name": "pauseMarket",
      "outputs": [],
      "stateMutability": "nonpayable",
      "type": "function"
    },
    {
      "inputs": [
        {
          "internalType": "uint256",
          "name": "punkIndex",
          "type": "uint256"
        },
        {
          "internalType": "uint256",
          "name": "minSalePriceInBNB",
          "type": "uint256"
        }
      ],
      "name": "offerPunkForSale",
      "outputs": [],
      "stateMutability": "nonpayable",
      "type": "function"
    },
    {
      "inputs": [
        {
          "internalType": "uint256",
          "name": "punkIndex",
          "type": "uint256"
        },
        {
          "internalType": "uint256",
          "name": "minSalePriceInBNB",
          "type": "uint256"
        },
        {
          "internalType": "address",
          "name": "toAddress",
          "type": "address"
        }
      ],
      "name": "offerPunkForSaleToAddress",
      "outputs": [],
      "stateMutability": "nonpayable",
      "type": "function"
    },
    {
      "inputs": [
        {
          "internalType": "uint256",
          "name": "punkIndex",
          "type": "uint256"
        }
      ],
      "name": "buyPunk",
      "outputs": [],
      "stateMutability": "payable",
      "type": "function",
      "payable": true
    },
    {
      "inputs": [
        {
          "internalType": "uint256",
          "name": "punkIndex",
          "type": "uint256"
        }
      ],
      "name": "enterBidForPunk",
      "outputs": [],
      "stateMutability": "payable",
      "type": "function",
      "payable": true
    },
    {
      "inputs": [
        {
          "internalType": "uint256",
          "name": "punkIndex",
          "type": "uint256"
        },
        {
          "internalType": "uint256",
          "name": "minPrice",
          "type": "uint256"
        }
      ],
      "name": "acceptBidForPunk",
      "outputs": [],
      "stateMutability": "nonpayable",
      "type": "function"
    },
    {
      "inputs": [
        {
          "internalType": "uint256",
          "name": "punkIndex",
          "type": "uint256"
        }
      ],
      "name": "withdrawBidForPunk",
      "outputs": [],
      "stateMutability": "nonpayable",
      "type": "function"
    },
    {
      "inputs": [
        {
          "internalType": "uint256",
          "name": "punkIndex",
          "type": "uint256"
        }
      ],
      "name": "punkNoLongerForSale",
      "outputs": [],
      "stateMutability": "nonpayable",
      "type": "function"
    },
    {
      "inputs": [
        {
          "internalType": "address",
          "name": "_operator",
          "type": "address"
        },
        {
          "internalType": "address",
          "name": "_from",
          "type": "address"
        },
        {
          "internalType": "uint256",
          "name": "_tokenId",
          "type": "uint256"
        },
        {
          "internalType": "bytes",
          "name": "_data",
          "type": "bytes"
        }
      ],
      "name": "onERC721Received",
      "outputs": [
        {
          "internalType": "bytes4",
          "name": "",
          "type": "bytes4"
        }
      ],
      "stateMutability": "nonpayable",
      "type": "function"
    }
  ],
  "bytecode": "0x60806040526004805460ff1916905534801561001a57600080fd5b506040516123b33803806123b38339818101604052602081101561003d57600080fd5b505160008054610100600160a81b0319163361010002178155600180546001600160a01b0319166001600160a01b039093169290921790915561232d90819061008690396000f3fe6080604052600436106100a75760003560e01c80636e743fa9116100645780636e743fa91461026d5780638264fe98146102c7578063979bc638146102e4578063bf31196f1461030e578063c44193c31461034d578063f6eeff1e1461037d576100a7565b8063088f11f3146100ac578063091dbfd21461010f578063150b7a021461012e57806323165b75146101e85780633a283bd2146102185780635ec390d814610241575b600080fd5b3480156100b857600080fd5b506100d6600480360360208110156100cf57600080fd5b50356103a7565b60408051951515865260208601949094526001600160a01b03928316858501526060850191909152166080830152519081900360a00190f35b61012c6004803603602081101561012557600080fd5b50356103e7565b005b34801561013a57600080fd5b506101cb6004803603608081101561015157600080fd5b6001600160a01b0382358116926020810135909116916040820135919081019060808101606082013564010000000081111561018c57600080fd5b82018360208201111561019e57600080fd5b803590602001918460018302840111640100000000831117156101c057600080fd5b509092509050610791565b604080516001600160e01b03199092168252519081900360200190f35b3480156101f457600080fd5b5061012c6004803603604081101561020b57600080fd5b50803590602001356107f1565b34801561022457600080fd5b5061022d610d5c565b604080519115158252519081900360200190f35b34801561024d57600080fd5b5061012c6004803603602081101561026457600080fd5b50351515610d65565b34801561027957600080fd5b506102976004803603602081101561029057600080fd5b5035610dcd565b60408051941515855260208501939093526001600160a01b03909116838301526060830152519081900360800190f35b61012c600480360360208110156102dd57600080fd5b5035610e03565b3480156102f057600080fd5b5061012c6004803603602081101561030757600080fd5b50356114cf565b34801561031a57600080fd5b5061012c6004803603606081101561033157600080fd5b50803590602081013590604001356001600160a01b031661172f565b34801561035957600080fd5b5061012c6004803603604081101561037057600080fd5b5080359060200135611ae1565b34801561038957600080fd5b5061012c600480360360208110156103a057600080fd5b5035611e8c565b60026020819052600091825260409091208054600182015492820154600383015460049093015460ff90921693926001600160a01b039182169290911685565b60045460ff16156103f757600080fd5b6004805460ff1916600117905560005460ff161561044c576040805162461bcd60e51b815260206004820152600d60248201526c13585c9ad95d0814185d5cd959609a1b604482015290519081900360640190fd5b610454612239565b50600081815260026020818152604092839020835160a081018552815460ff16151580825260018084015494830194909452938201546001600160a01b0390811695820195909552600382015460608201526004909101549093166080840152146104fd576040805162461bcd60e51b815260206004820152601460248201527370756e6b206973206e6f7420666f722073616c6560601b604482015290519081900360640190fd5b60408101516001600160a01b0316331415610553576040805162461bcd60e51b81526020600482015260116024820152701bdddb995c8818d85b881b9bdd08189a59607a1b604482015290519081900360640190fd5b6000341161059e576040805162461bcd60e51b81526020600482015260136024820152726269642063616e206e6f74206265207a65726f60681b604482015290519081900360640190fd5b6105a6612267565b506000828152600360208181526040928390208351608081018552815460ff161515815260018201549281019290925260028101546001600160a01b0316938201939093529101546060820181905234116106325760405162461bcd60e51b81526004018080602001828103825260238152602001806122d56023913960400191505060405180910390fd5b60408051608081018252600180825260208083018781523384860190815234606080870191825260008b8152600395869052979097209551865460ff191690151517865591519385019390935591516002840180546001600160a01b0319166001600160a01b0390921691909117905590519101558101511561074b57604080820151606083015191516000926001600160a01b0390921691908381818185875af1925050503d8060008114610704576040519150601f19603f3d011682016040523d82523d6000602084013e610709565b606091505b50509050806107495760405162461bcd60e51b815260040180806020018281038252603a81526020018061229b603a913960400191505060405180910390fd5b505b604080513481529051339185917f5b859394fabae0c1ba88baffe67e751ab5248d2e879028b8c8d6897b0519f56a9181900360200190a350506004805460ff1916905550565b604080516001600160a01b0380881682528616602082015280820185905290516000917f941a9d9a9af7f97737c018d13918859e12f44e16c4b4c6ac922dacf021cfbf14919081900360600190a150630a2ebf0f60e31b95945050505050565b60045460ff161561080157600080fd5b6004805460ff1916600117905560005460ff1615610856576040805162461bcd60e51b815260206004820152600d60248201526c13585c9ad95d0814185d5cd959609a1b604482015290519081900360640190fd5b61085e612239565b50600082815260026020818152604092839020835160a081018552815460ff1615158152600182015492810192909252918201546001600160a01b03908116938201849052600383015460608301526004909201549091166080820152906108c4612267565b506000848152600360208181526040928390208351608081018552815460ff161515815260018201549281019290925260028101546001600160a01b0390811694830194909452909101546060820152908216331461095b576040805162461bcd60e51b815260206004820152600e60248201526d27b7363c9027232a1027bbb732b960911b604482015290519081900360640190fd5b60008160600151116109ab576040805162461bcd60e51b81526020600482015260146024820152731d1a195c99481a5cc81b9bdd08185b9e48189a5960621b604482015290519081900360640190fd5b8381606001511015610a04576040805162461bcd60e51b815260206004820152601b60248201527f626964206973206c6f776572207468616e206d696e2070726963650000000000604482015290519081900360640190fd5b6001546040808301518151632142170760e11b81523060048201526001600160a01b0391821660248201526044810189905291519216916342842e0e9160648082019260009290919082900301818387803b158015610a6257600080fd5b505af1158015610a76573d6000803e3d6000fd5b5050505080604001516001600160a01b0316826001600160a01b03167fddf252ad1be2c89b69c2b068fc378daa952ba7f163c4a11628f55a4df523b3ef60016040518082815260200191505060405180910390a36040518060a0016040528060001515815260200186815260200182604001516001600160a01b031681526020016000815260200160006001600160a01b03168152506002600087815260200190815260200160002060008201518160000160006101000a81548160ff0219169083151502179055506020820151816001015560408201518160020160006101000a8154816001600160a01b0302191690836001600160a01b031602179055506060820151816003015560808201518160040160006101000a8154816001600160a01b0302191690836001600160a01b03160217905550905050604051806080016040528060001515815260200186815260200160006001600160a01b0316815260200160008152506003600087815260200190815260200160002060008201518160000160006101000a81548160ff0219169083151502179055506020820151816001015560408201518160020160006101000a8154816001600160a01b0302191690836001600160a01b0316021790555060608201518160030155905050600083604001516001600160a01b0316826060015160405180600001905060006040518083038185875af1925050503d8060008114610cb1576040519150601f19603f3d011682016040523d82523d6000602084013e610cb6565b606091505b5050905080610cf65760405162461bcd60e51b815260040180806020018281038252603a81526020018061229b603a913960400191505060405180910390fd5b81604001516001600160a01b0316836001600160a01b0316877f58e5d5a525e3b40bc15abaa38b5882678db1ee68befd2f60bafe3a7fd06db9e385606001516040518082815260200191505060405180910390a450506004805460ff1916905550505050565b60005460ff1681565b60005461010090046001600160a01b03163314610dba576040805162461bcd60e51b815260206004820152600e60248201526d27b7363c903232b83637bcb2b91760911b604482015290519081900360640190fd5b6000805460ff1916911515919091179055565b6003602081905260009182526040909120805460018201546002830154929093015460ff90911692916001600160a01b03169084565b60045460ff1615610e1357600080fd5b6004805460ff1916600117905560005460ff1615610e68576040805162461bcd60e51b815260206004820152600d60248201526c13585c9ad95d0814185d5cd959609a1b604482015290519081900360640190fd5b610e70612239565b50600081815260026020818152604092839020835160a081018552815460ff16151580825260018084015494830194909452938201546001600160a01b039081169582019590955260038201546060820152600490910154909316608084015214610f19576040805162461bcd60e51b815260206004820152601460248201527370756e6b206973206e6f7420666f722073616c6560601b604482015290519081900360640190fd5b60808101516001600160a01b031615801590610f42575060808101516001600160a01b03163314155b15610f94576040805162461bcd60e51b815260206004820152601760248201527f796f752063616e27742062757920746869732070756e6b000000000000000000604482015290519081900360640190fd5b80604001516001600160a01b0316336001600160a01b03161415610fff576040805162461bcd60e51b815260206004820152601960248201527f596f752063616e206e6f742062757920796f75722070756e6b00000000000000604482015290519081900360640190fd5b8060600151341015611051576040805162461bcd60e51b81526020600482015260166024820152752234b23713ba1039b2b7321032b737bab3b41021272160511b604482015290519081900360640190fd5b600154604080516331a9108f60e11b81526004810185905290516001600160a01b0390921691636352211e91602480820192602092909190829003018186803b15801561109d57600080fd5b505afa1580156110b1573d6000803e3d6000fd5b505050506040513d60208110156110c757600080fd5b50516001600160a01b03163014611125576040805162461bcd60e51b815260206004820152601e60248201527f53656c6c6572206e6f206c6f6e676572206f776e6572206f662070756e6b0000604482015290519081900360640190fd5b6040808201516001548251632142170760e11b815230600482015233602482015260448101869052925191926001600160a01b03909116916342842e0e9160648082019260009290919082900301818387803b15801561118457600080fd5b505af1158015611198573d6000803e3d6000fd5b5050604080516001815290513393506001600160a01b03851692507fddf252ad1be2c89b69c2b068fc378daa952ba7f163c4a11628f55a4df523b3ef9181900360200190a36040805160a081018252600080825260208083018781523384860190815260608501848152608086018581528a86526002948590528786209651875460ff191690151517875592516001870155905192850180546001600160a01b03199081166001600160a01b0395861617909155905160038601559051600490940180549091169390911692909217909155905184917fb0e0a660b4e50f26f0b7ce75c24655fc76cc66e3334a54ff410277229fa10bd491a2611299612267565b506000838152600360208181526040928390208351608081018552815460ff16158015825260018301549382019390935260028201546001600160a01b0316948101949094529091015460608301526113eb57604080516080810182526000808252602080830188815283850183815260608086018581528b86526003948590528786209651875460ff19169015151787559251600187015590516002860180546001600160a01b0319166001600160a01b0392831617905591519490920193909355848401519085015193519193921691908381818185875af1925050503d80600081146113a4576040519150601f19603f3d011682016040523d82523d6000602084013e6113a9565b606091505b50509050806113e95760405162461bcd60e51b815260040180806020018281038252603a81526020018061229b603a913960400191505060405180910390fd5b505b6040516000906001600160a01b0384169034908381818185875af1925050503d8060008114611436576040519150601f19603f3d011682016040523d82523d6000602084013e61143b565b606091505b505090508061147b5760405162461bcd60e51b815260040180806020018281038252603a81526020018061229b603a913960400191505060405180910390fd5b60408051348152905133916001600160a01b0386169188917f58e5d5a525e3b40bc15abaa38b5882678db1ee68befd2f60bafe3a7fd06db9e3919081900360200190a450506004805460ff19169055505050565b60045460ff16156114df57600080fd5b6004805460ff191660011790556114f4612267565b506000818152600360208181526040928390208351608081018552815460ff1615158082526001808401549483019490945260028301546001600160a01b031695820195909552920154606083015290911461158a576040805162461bcd60e51b815260206004820152601060248201526f151a195c99481a5cc81b9bdd08189a5960821b604482015290519081900360640190fd5b60408101516001600160a01b031633146115eb576040805162461bcd60e51b815260206004820152601860248201527f4f6e6c79206269646465722063616e2077697468647261770000000000000000604482015290519081900360640190fd5b60608181015160408051608081018252600080825260208083018881528385018381529684018381528984526003928390528584209451855460ff19169015151785559051600185015595516002840180546001600160a01b0319166001600160a01b039092169190911790559451919094015551909190339083908381818185875af1925050503d806000811461169f576040519150601f19603f3d011682016040523d82523d6000602084013e6116a4565b606091505b50509050806116e45760405162461bcd60e51b815260040180806020018281038252603a81526020018061229b603a913960400191505060405180910390fd5b60608301516040805191825251339186917f6f30e1ee4d81dcc7a8a478577f65d2ed2edb120565960ac45fe7c50551c879329181900360200190a350506004805460ff191690555050565b60045460ff161561173f57600080fd5b6004805460ff1916600117905560005460ff1615611794576040805162461bcd60e51b815260206004820152600d60248201526c13585c9ad95d0814185d5cd959609a1b604482015290519081900360640190fd5b600154604080516331a9108f60e11b815260048101869052905133926001600160a01b031691636352211e916024808301926020929190829003018186803b1580156117df57600080fd5b505afa1580156117f3573d6000803e3d6000fd5b505050506040513d602081101561180957600080fd5b50516001600160a01b031614611853576040805162461bcd60e51b815260206004820152600a60248201526927b7363c9037bbb732b960b11b604482015290519081900360640190fd5b6001546040805163020604bf60e21b815260048101869052905130926001600160a01b03169163081812fc916024808301926020929190829003018186803b15801561189e57600080fd5b505afa1580156118b2573d6000803e3d6000fd5b505050506040513d60208110156118c857600080fd5b50516001600160a01b0316148061195857506001546040805163e985e9c560e01b815233600482015230602482015290516001600160a01b039092169163e985e9c591604480820192602092909190829003018186803b15801561192b57600080fd5b505afa15801561193f573d6000803e3d6000fd5b505050506040513d602081101561195557600080fd5b50515b611998576040805162461bcd60e51b815260206004820152600c60248201526b139bdd08105c1c1c9bdd995960a21b604482015290519081900360640190fd5b60015460408051632142170760e11b81523360048201523060248201526044810186905290516001600160a01b03909216916342842e0e9160648082019260009290919082900301818387803b1580156119f157600080fd5b505af1158015611a05573d6000803e3d6000fd5b50506040805160a0810182526001808252602080830189815233848601908152606085018a81526001600160a01b038a81166080880181815260008f81526002808952908b902099518a5490151560ff19909116178a55955197890197909755925193870180549482166001600160a01b031995861617905590516003870155935160049095018054959094169490911693909317909155825187815292519194508793507f3c7b682d5da98001a9b8cbda6c647d2c63d698a4184fd1d55e2ce7b66f5d21eb928290030190a350506004805460ff1916905550565b60045460ff1615611af157600080fd5b6004805460ff1916600117905560005460ff1615611b46576040805162461bcd60e51b815260206004820152600d60248201526c13585c9ad95d0814185d5cd959609a1b604482015290519081900360640190fd5b600154604080516331a9108f60e11b815260048101859052905133926001600160a01b031691636352211e916024808301926020929190829003018186803b158015611b9157600080fd5b505afa158015611ba5573d6000803e3d6000fd5b505050506040513d6020811015611bbb57600080fd5b50516001600160a01b031614611c05576040805162461bcd60e51b815260206004820152600a60248201526927b7363c9037bbb732b960b11b604482015290519081900360640190fd5b6001546040805163020604bf60e21b815260048101859052905130926001600160a01b03169163081812fc916024808301926020929190829003018186803b158015611c5057600080fd5b505afa158015611c64573d6000803e3d6000fd5b505050506040513d6020811015611c7a57600080fd5b50516001600160a01b03161480611d0a57506001546040805163e985e9c560e01b815233600482015230602482015290516001600160a01b039092169163e985e9c591604480820192602092909190829003018186803b158015611cdd57600080fd5b505afa158015611cf1573d6000803e3d6000fd5b505050506040513d6020811015611d0757600080fd5b50515b611d4a576040805162461bcd60e51b815260206004820152600c60248201526b139bdd08105c1c1c9bdd995960a21b604482015290519081900360640190fd5b60015460408051632142170760e11b81523360048201523060248201526044810185905290516001600160a01b03909216916342842e0e9160648082019260009290919082900301818387803b158015611da357600080fd5b505af1158015611db7573d6000803e3d6000fd5b50506040805160a0810182526001808252602080830188815233848601908152606085018981526000608087018181528c825260028087528983209851895460ff1916901515178955945196880196909655915192860180546001600160a01b03199081166001600160a01b0395861617909155905160038701559351600490950180549094169490911693909317909155825186815292519194508693507f3c7b682d5da98001a9b8cbda6c647d2c63d698a4184fd1d55e2ce7b66f5d21eb928290030190a350506004805460ff19169055565b60045460ff1615611e9c57600080fd5b6004805460ff19166001179055611eb1612239565b50600081815260026020818152604092839020835160a081018552815460ff16151580825260018084015494830194909452938201546001600160a01b039081169582019590955260038201546060820152600490910154909316608084015214611f5a576040805162461bcd60e51b815260206004820152601460248201527370756e6b206973206e6f7420666f722073616c6560601b604482015290519081900360640190fd5b60408101516001600160a01b0381163314611fa9576040805162461bcd60e51b815260206004820152600a60248201526927b7363c9027bbb732b960b11b604482015290519081900360640190fd5b60015460408051632142170760e11b81523060048201523360248201526044810186905290516001600160a01b03909216916342842e0e9160648082019260009290919082900301818387803b15801561200257600080fd5b505af1158015612016573d6000803e3d6000fd5b50506040805160a081018252600080825260208083018981523384860190815260608501848152608086018581528c8652600294859052969094209451855460ff1916901515178555905160018501555190830180546001600160a01b03199081166001600160a01b03938416179091559151600384015592516004909201805490911691909216179055506120ac9050612267565b506000838152600360208181526040928390208351608081018552815460ff16158015825260018301549382019390935260028201546001600160a01b0316948101949094529091015460608301526121fe57604080516080810182526000808252602080830188815283850183815260608086018581528b86526003948590528786209651875460ff19169015151787559251600187015590516002860180546001600160a01b0319166001600160a01b0392831617905591519490920193909355848401519085015193519193921691908381818185875af1925050503d80600081146121b7576040519150601f19603f3d011682016040523d82523d6000602084013e6121bc565b606091505b50509050806121fc5760405162461bcd60e51b815260040180806020018281038252603a81526020018061229b603a913960400191505060405180910390fd5b505b60405184907fb0e0a660b4e50f26f0b7ce75c24655fc76cc66e3334a54ff410277229fa10bd490600090a250506004805460ff191690555050565b6040805160a08101825260008082526020820181905291810182905260608101829052608081019190915290565b60405180608001604052806000151581526020016000815260200160006001600160a01b0316815260200160008152509056fe416464726573733a20756e61626c6520746f2073656e642076616c75652c20726563697069656e74206d61792068617665207265766572746564796f752063616e206e6f7420626964206c6f776572207468616e206c61737420626964a26469706673582212202ead185e08f13a6fcd751cd64fd1dfa2b8958ea2a1fa68c32d894817022a3bb364736f6c634300060c0033",
  "immutableReferences": {},
  "source": "// SPDX-License-Identifier: MIT\npragma solidity ^0.6.12;\n\nimport \"@openzeppelin/contracts/math/SafeMath.sol\";\nimport \"@openzeppelin/contracts/token/ERC721/IERC721.sol\";\nimport \"@openzeppelin/contracts/token/ERC721/IERC721Receiver.sol\";\n\ncontract CrossPunksDex is IERC721Receiver {\n    struct Offer {\n        bool isForSale;\n        uint256 punkIndex;\n        address seller;\n        uint256 minValue; // in BNB\n        address onlySellTo; // specify to sell only to a specific person\n    }\n\n    struct Bid {\n        bool hasBid;\n        uint256 punkIndex;\n        address bidder;\n        uint256 value;\n    }\n\n    bool public marketPaused;\n\n    address payable internal _deployer;\n\n    IERC721 private _crosspunks;\n\n    // A record of punks that are offered for sale at a specific minimum value, and perhaps to a specific person\n    mapping(uint256 => Offer) public punksOfferedForSale;\n\n    // A record of the highest punk bid\n    mapping(uint256 => Bid) public punkBids;\n\n    event Transfer(address indexed from, address indexed to, uint256 value);\n    event PunkTransfer(\n        address indexed from,\n        address indexed to,\n        uint256 punkIndex\n    );\n    event PunkOffered(\n        uint256 indexed punkIndex,\n        uint256 minValue,\n        address indexed toAddress\n    );\n    event PunkBidEntered(\n        uint256 indexed punkIndex,\n        uint256 value,\n        address indexed fromAddress\n    );\n    event PunkBidWithdrawn(\n        uint256 indexed punkIndex,\n        uint256 value,\n        address indexed fromAddress\n    );\n    event PunkBought(\n        uint256 indexed punkIndex,\n        uint256 value,\n        address indexed fromAddress,\n        address indexed toAddress\n    );\n    event PunkNoLongerForSale(uint256 indexed punkIndex);\n    event ERC721Received(address operator, address _from, uint256 tokenId);\n\n    modifier onlyDeployer() {\n        require(msg.sender == _deployer, \"Only deployer.\");\n        _;\n    }\n\n    bool private _reentrancyLock = false;\n\n    /* Prevent a contract function from being reentrant-called. */\n    modifier reentrancyGuard() {\n        if (_reentrancyLock) {\n            revert();\n        }\n        _reentrancyLock = true;\n        _;\n        _reentrancyLock = false;\n    }\n\n    constructor(address crosspunks) public {\n        _deployer = msg.sender;\n        _crosspunks = IERC721(crosspunks);\n    }\n\n    function pauseMarket(bool _paused) external onlyDeployer {\n        marketPaused = _paused;\n    }\n\n    function offerPunkForSale(uint256 punkIndex, uint256 minSalePriceInBNB)\n        public\n        reentrancyGuard\n    {\n        require(marketPaused == false, \"Market Paused\");\n        require(_crosspunks.ownerOf(punkIndex) == msg.sender, \"Only owner\");\n        require(\n            (_crosspunks.getApproved(punkIndex) == address(this) ||\n                _crosspunks.isApprovedForAll(msg.sender, address(this))),\n            \"Not Approved\"\n        );\n\n        _crosspunks.safeTransferFrom(msg.sender, address(this), punkIndex);\n        punksOfferedForSale[punkIndex] = Offer(\n            true,\n            punkIndex,\n            msg.sender,\n            minSalePriceInBNB,\n            address(0)\n        );\n\n        emit PunkOffered(punkIndex, minSalePriceInBNB, address(0));\n    }\n\n    function offerPunkForSaleToAddress(\n        uint256 punkIndex,\n        uint256 minSalePriceInBNB,\n        address toAddress\n    ) public reentrancyGuard {\n        require(marketPaused == false, \"Market Paused\");\n        require(_crosspunks.ownerOf(punkIndex) == msg.sender, \"Only owner\");\n        require(\n            (_crosspunks.getApproved(punkIndex) == address(this) ||\n                _crosspunks.isApprovedForAll(msg.sender, address(this))),\n            \"Not Approved\"\n        );\n\n        _crosspunks.safeTransferFrom(msg.sender, address(this), punkIndex);\n        punksOfferedForSale[punkIndex] = Offer(\n            true,\n            punkIndex,\n            msg.sender,\n            minSalePriceInBNB,\n            toAddress\n        );\n\n        PunkOffered(punkIndex, minSalePriceInBNB, toAddress);\n    }\n\n    function buyPunk(uint256 punkIndex) public payable reentrancyGuard {\n        require(marketPaused == false, \"Market Paused\");\n\n        Offer memory offer = punksOfferedForSale[punkIndex];\n\n        require(offer.isForSale == true, \"punk is not for sale\"); // punk not actually for sale\n\n        if (offer.onlySellTo != address(0) && offer.onlySellTo != msg.sender) {\n            revert(\"you can't buy this punk\");\n        } // punk not supposed to be sold to this user\n\n        require(msg.sender != offer.seller, \"You can not buy your punk\");\n        require(msg.value >= offer.minValue, \"Didn't send enough BNB\"); // Didn\"t send enough BNB\n        require(\n            address(this) == _crosspunks.ownerOf(punkIndex),\n            \"Seller no longer owner of punk\"\n        ); // Seller no longer owner of punk\n\n        address seller = offer.seller;\n\n        _crosspunks.safeTransferFrom(address(this), msg.sender, punkIndex);\n\n        emit Transfer(seller, msg.sender, 1);\n\n        punksOfferedForSale[punkIndex] = Offer(\n            false,\n            punkIndex,\n            msg.sender,\n            0,\n            address(0)\n        );\n\n        emit PunkNoLongerForSale(punkIndex);\n\n        Bid memory bid = punkBids[punkIndex];\n\n        if (bid.hasBid) {\n            punkBids[punkIndex] = Bid(false, punkIndex, address(0), 0);\n\n            (bool success, ) = address(uint160(bid.bidder)).call{ value: bid.value }(\"\");\n            require(\n                success,\n                \"Address: unable to send value, recipient may have reverted\"\n            );\n        }\n\n        (bool success, ) = address(uint160(seller)).call{ value: msg.value }(\"\");\n\n        require(\n            success,\n            \"Address: unable to send value, recipient may have reverted\"\n        );\n\n        emit PunkBought(punkIndex, msg.value, seller, msg.sender);\n    }\n\n    function enterBidForPunk(uint256 punkIndex) public payable reentrancyGuard {\n        require(marketPaused == false, \"Market Paused\");\n\n        Offer memory offer = punksOfferedForSale[punkIndex];\n\n        require(offer.isForSale == true, \"punk is not for sale\");\n        require(offer.seller != msg.sender, \"owner can not bid\");\n        require(msg.value > 0, \"bid can not be zero\");\n\n        Bid memory existing = punkBids[punkIndex];\n\n        require(\n            msg.value > existing.value,\n            \"you can not bid lower than last bid\"\n        );\n\n        punkBids[punkIndex] = Bid(true, punkIndex, msg.sender, msg.value);\n\n        if (existing.value > 0) {\n            // Refund the failing bid\n            (bool success, ) = address(uint160(existing.bidder)).call{ value: existing.value }(\"\");\n            require(\n                success,\n                \"Address: unable to send value, recipient may have reverted\"\n            );\n        }\n\n        emit PunkBidEntered(punkIndex, msg.value, msg.sender);\n    }\n\n    function acceptBidForPunk(uint256 punkIndex, uint256 minPrice)\n        public\n        reentrancyGuard\n    {\n        require(marketPaused == false, \"Market Paused\");\n\n        Offer memory offer = punksOfferedForSale[punkIndex];\n\n        address seller = offer.seller;\n\n        Bid memory bid = punkBids[punkIndex];\n\n        require(seller == msg.sender, \"Only NFT Owner\");\n        require(bid.value > 0, \"there is not any bid\");\n        require(bid.value >= minPrice, \"bid is lower than min price\");\n\n        _crosspunks.safeTransferFrom(address(this), bid.bidder, punkIndex);\n\n        emit Transfer(seller, bid.bidder, 1);\n\n        punksOfferedForSale[punkIndex] = Offer(\n            false,\n            punkIndex,\n            bid.bidder,\n            0,\n            address(0)\n        );\n\n        punkBids[punkIndex] = Bid(false, punkIndex, address(0), 0);\n\n        (bool success, ) = address(uint160(offer.seller)).call{ value: bid.value }(\"\");\n        require(\n            success,\n            \"Address: unable to send value, recipient may have reverted\"\n        );\n\n        emit PunkBought(punkIndex, bid.value, seller, bid.bidder);\n    }\n\n    function withdrawBidForPunk(uint256 punkIndex) public reentrancyGuard {\n        Bid memory bid = punkBids[punkIndex];\n\n        require(bid.hasBid == true, \"There is not bid\");\n        require(bid.bidder == msg.sender, \"Only bidder can withdraw\");\n\n        uint256 amount = bid.value;\n\n        punkBids[punkIndex] = Bid(false, punkIndex, address(0), 0);\n\n        // Refund the bid money\n        (bool success, ) = address(uint160(msg.sender)).call{ value: amount }(\"\");\n\n        require(\n            success,\n            \"Address: unable to send value, recipient may have reverted\"\n        );\n\n        emit PunkBidWithdrawn(punkIndex, bid.value, msg.sender);\n    }\n\n    function punkNoLongerForSale(uint256 punkIndex) public reentrancyGuard {\n        Offer memory offer = punksOfferedForSale[punkIndex];\n\n        require(offer.isForSale == true, \"punk is not for sale\");\n\n        address seller = offer.seller;\n\n        require(seller == msg.sender, \"Only Owner\");\n\n        _crosspunks.safeTransferFrom(address(this), msg.sender, punkIndex);\n\n        punksOfferedForSale[punkIndex] = Offer(\n            false,\n            punkIndex,\n            msg.sender,\n            0,\n            address(0)\n        );\n\n        Bid memory bid = punkBids[punkIndex];\n\n        if (bid.hasBid) {\n            punkBids[punkIndex] = Bid(false, punkIndex, address(0), 0);\n\n            // Refund the bid money\n            (bool success, ) = address(uint160(bid.bidder)).call{ value: bid.value }(\"\");\n\n            require(\n                success,\n                \"Address: unable to send value, recipient may have reverted\"\n            );\n        }\n\n        emit PunkNoLongerForSale(punkIndex);\n    }\n\n    function onERC721Received(\n        address _operator,\n        address _from,\n        uint256 _tokenId,\n        bytes calldata _data\n    ) external override returns (bytes4) {\n        _data;\n        emit ERC721Received(_operator, _from, _tokenId);\n        return 0x5175f878;\n    }\n}\n",
  "sourcePath": "/home/deadblackclover/Projects/crosspunks-bsc-sc/contracts/CrossPunksDex.sol",
  "compiler": {
    "name": "solc",
    "version": "0.6.12+commit.27d51765.Emscripten.clang"
  },
  "schemaVersion": "3.4.3",
  "updatedAt": "2021-09-03T04:42:43.149Z",
  "networkType": "ethereum",
  "devdoc": {
    "kind": "dev",
    "methods": {},
    "version": 1
  },
  "userdoc": {
    "kind": "user",
    "methods": {},
    "version": 1
  }
}