{
  "contractName": "CrossPunks",
  "abi": [
    {
      "inputs": [
        {
          "internalType": "string",
          "name": "name",
          "type": "string"
        },
        {
          "internalType": "string",
          "name": "symbol",
          "type": "string"
        }
      ],
      "stateMutability": "nonpayable",
      "type": "constructor"
    },
    {
      "anonymous": false,
      "inputs": [
        {
          "indexed": true,
          "internalType": "address",
          "name": "owner",
          "type": "address"
        },
        {
          "indexed": true,
          "internalType": "address",
          "name": "approved",
          "type": "address"
        },
        {
          "indexed": true,
          "internalType": "uint256",
          "name": "tokenId",
          "type": "uint256"
        }
      ],
      "name": "Approval",
      "type": "event"
    },
    {
      "anonymous": false,
      "inputs": [
        {
          "indexed": true,
          "internalType": "address",
          "name": "owner",
          "type": "address"
        },
        {
          "indexed": true,
          "internalType": "address",
          "name": "operator",
          "type": "address"
        },
        {
          "indexed": false,
          "internalType": "bool",
          "name": "approved",
          "type": "bool"
        }
      ],
      "name": "ApprovalForAll",
      "type": "event"
    },
    {
      "anonymous": false,
      "inputs": [
        {
          "indexed": true,
          "internalType": "uint256",
          "name": "maskIndex",
          "type": "uint256"
        },
        {
          "indexed": false,
          "internalType": "string",
          "name": "newName",
          "type": "string"
        }
      ],
      "name": "NameChange",
      "type": "event"
    },
    {
      "anonymous": false,
      "inputs": [
        {
          "indexed": true,
          "internalType": "address",
          "name": "previousOwner",
          "type": "address"
        },
        {
          "indexed": true,
          "internalType": "address",
          "name": "newOwner",
          "type": "address"
        }
      ],
      "name": "OwnershipTransferred",
      "type": "event"
    },
    {
      "anonymous": false,
      "inputs": [
        {
          "indexed": true,
          "internalType": "address",
          "name": "from",
          "type": "address"
        },
        {
          "indexed": true,
          "internalType": "address",
          "name": "to",
          "type": "address"
        },
        {
          "indexed": true,
          "internalType": "uint256",
          "name": "tokenId",
          "type": "uint256"
        }
      ],
      "name": "Transfer",
      "type": "event"
    },
    {
      "inputs": [],
      "name": "CROSSPUNKS_PROVENANCE",
      "outputs": [
        {
          "internalType": "string",
          "name": "",
          "type": "string"
        }
      ],
      "stateMutability": "view",
      "type": "function",
      "constant": true
    },
    {
      "inputs": [],
      "name": "MAX_NFT_SUPPLY",
      "outputs": [
        {
          "internalType": "uint256",
          "name": "",
          "type": "uint256"
        }
      ],
      "stateMutability": "view",
      "type": "function",
      "constant": true
    },
    {
      "inputs": [],
      "name": "airDropId",
      "outputs": [
        {
          "internalType": "uint256",
          "name": "",
          "type": "uint256"
        }
      ],
      "stateMutability": "view",
      "type": "function",
      "constant": true
    },
    {
      "inputs": [],
      "name": "owner",
      "outputs": [
        {
          "internalType": "address",
          "name": "",
          "type": "address"
        }
      ],
      "stateMutability": "view",
      "type": "function",
      "constant": true
    },
    {
      "inputs": [],
      "name": "renounceOwnership",
      "outputs": [],
      "stateMutability": "nonpayable",
      "type": "function"
    },
    {
      "inputs": [
        {
          "internalType": "bytes4",
          "name": "interfaceId",
          "type": "bytes4"
        }
      ],
      "name": "supportsInterface",
      "outputs": [
        {
          "internalType": "bool",
          "name": "",
          "type": "bool"
        }
      ],
      "stateMutability": "view",
      "type": "function",
      "constant": true
    },
    {
      "inputs": [
        {
          "internalType": "address",
          "name": "newOwner",
          "type": "address"
        }
      ],
      "name": "transferOwnership",
      "outputs": [],
      "stateMutability": "nonpayable",
      "type": "function"
    },
    {
      "inputs": [
        {
          "internalType": "address",
          "name": "",
          "type": "address"
        }
      ],
      "name": "usersAirdrop",
      "outputs": [
        {
          "internalType": "bool",
          "name": "isExists",
          "type": "bool"
        },
        {
          "internalType": "uint256",
          "name": "id",
          "type": "uint256"
        },
        {
          "internalType": "uint256",
          "name": "referralBuyIndex",
          "type": "uint256"
        }
      ],
      "stateMutability": "view",
      "type": "function",
      "constant": true
    },
    {
      "inputs": [
        {
          "internalType": "uint256",
          "name": "",
          "type": "uint256"
        }
      ],
      "name": "usersAirdropAddress",
      "outputs": [
        {
          "internalType": "address",
          "name": "",
          "type": "address"
        }
      ],
      "stateMutability": "view",
      "type": "function",
      "constant": true
    },
    {
      "inputs": [
        {
          "internalType": "uint256",
          "name": "",
          "type": "uint256"
        }
      ],
      "name": "winners",
      "outputs": [
        {
          "internalType": "address",
          "name": "",
          "type": "address"
        }
      ],
      "stateMutability": "view",
      "type": "function",
      "constant": true
    },
    {
      "inputs": [],
      "name": "startAirDrop",
      "outputs": [
        {
          "internalType": "uint256",
          "name": "",
          "type": "uint256"
        }
      ],
      "stateMutability": "nonpayable",
      "type": "function"
    },
    {
      "inputs": [
        {
          "internalType": "address[]",
          "name": "users",
          "type": "address[]"
        },
        {
          "internalType": "uint256",
          "name": "_column",
          "type": "uint256"
        }
      ],
      "name": "initializeOwners",
      "outputs": [],
      "stateMutability": "nonpayable",
      "type": "function"
    },
    {
      "inputs": [],
      "name": "finishInitilizeOwners",
      "outputs": [],
      "stateMutability": "nonpayable",
      "type": "function"
    },
    {
      "inputs": [
        {
          "internalType": "address",
          "name": "owner",
          "type": "address"
        }
      ],
      "name": "balanceOf",
      "outputs": [
        {
          "internalType": "uint256",
          "name": "",
          "type": "uint256"
        }
      ],
      "stateMutability": "view",
      "type": "function",
      "constant": true
    },
    {
      "inputs": [
        {
          "internalType": "uint256",
          "name": "tokenId",
          "type": "uint256"
        }
      ],
      "name": "ownerOf",
      "outputs": [
        {
          "internalType": "address",
          "name": "",
          "type": "address"
        }
      ],
      "stateMutability": "view",
      "type": "function",
      "constant": true
    },
    {
      "inputs": [],
      "name": "name",
      "outputs": [
        {
          "internalType": "string",
          "name": "",
          "type": "string"
        }
      ],
      "stateMutability": "view",
      "type": "function",
      "constant": true
    },
    {
      "inputs": [],
      "name": "symbol",
      "outputs": [
        {
          "internalType": "string",
          "name": "",
          "type": "string"
        }
      ],
      "stateMutability": "view",
      "type": "function",
      "constant": true
    },
    {
      "inputs": [
        {
          "internalType": "uint256",
          "name": "tokenId",
          "type": "uint256"
        }
      ],
      "name": "tokenURI",
      "outputs": [
        {
          "internalType": "string",
          "name": "",
          "type": "string"
        }
      ],
      "stateMutability": "view",
      "type": "function",
      "constant": true
    },
    {
      "inputs": [],
      "name": "baseURI",
      "outputs": [
        {
          "internalType": "string",
          "name": "",
          "type": "string"
        }
      ],
      "stateMutability": "view",
      "type": "function",
      "constant": true
    },
    {
      "inputs": [
        {
          "internalType": "address",
          "name": "owner",
          "type": "address"
        },
        {
          "internalType": "uint256",
          "name": "index",
          "type": "uint256"
        }
      ],
      "name": "tokenOfOwnerByIndex",
      "outputs": [
        {
          "internalType": "uint256",
          "name": "",
          "type": "uint256"
        }
      ],
      "stateMutability": "view",
      "type": "function",
      "constant": true
    },
    {
      "inputs": [],
      "name": "totalSupply",
      "outputs": [
        {
          "internalType": "uint256",
          "name": "",
          "type": "uint256"
        }
      ],
      "stateMutability": "view",
      "type": "function",
      "constant": true
    },
    {
      "inputs": [
        {
          "internalType": "uint256",
          "name": "index",
          "type": "uint256"
        }
      ],
      "name": "tokenByIndex",
      "outputs": [
        {
          "internalType": "uint256",
          "name": "",
          "type": "uint256"
        }
      ],
      "stateMutability": "view",
      "type": "function",
      "constant": true
    },
    {
      "inputs": [],
      "name": "getNFTPrice",
      "outputs": [
        {
          "internalType": "uint256",
          "name": "",
          "type": "uint256"
        }
      ],
      "stateMutability": "view",
      "type": "function",
      "constant": true
    },
    {
      "inputs": [
        {
          "internalType": "uint256",
          "name": "numberOfNfts",
          "type": "uint256"
        }
      ],
      "name": "mintNFT",
      "outputs": [],
      "stateMutability": "payable",
      "type": "function",
      "payable": true
    },
    {
      "inputs": [
        {
          "internalType": "uint256",
          "name": "numberOfNfts",
          "type": "uint256"
        },
        {
          "internalType": "uint256",
          "name": "_airDropId",
          "type": "uint256"
        }
      ],
      "name": "mintNFTAirDrop",
      "outputs": [],
      "stateMutability": "payable",
      "type": "function",
      "payable": true
    },
    {
      "inputs": [],
      "name": "withdraw",
      "outputs": [],
      "stateMutability": "nonpayable",
      "type": "function"
    },
    {
      "inputs": [
        {
          "internalType": "address",
          "name": "to",
          "type": "address"
        },
        {
          "internalType": "uint256",
          "name": "tokenId",
          "type": "uint256"
        }
      ],
      "name": "approve",
      "outputs": [],
      "stateMutability": "nonpayable",
      "type": "function"
    },
    {
      "inputs": [
        {
          "internalType": "uint256",
          "name": "tokenId",
          "type": "uint256"
        }
      ],
      "name": "getApproved",
      "outputs": [
        {
          "internalType": "address",
          "name": "",
          "type": "address"
        }
      ],
      "stateMutability": "view",
      "type": "function",
      "constant": true
    },
    {
      "inputs": [
        {
          "internalType": "address",
          "name": "operator",
          "type": "address"
        },
        {
          "internalType": "bool",
          "name": "approved",
          "type": "bool"
        }
      ],
      "name": "setApprovalForAll",
      "outputs": [],
      "stateMutability": "nonpayable",
      "type": "function"
    },
    {
      "inputs": [
        {
          "internalType": "address",
          "name": "owner",
          "type": "address"
        },
        {
          "internalType": "address",
          "name": "operator",
          "type": "address"
        }
      ],
      "name": "isApprovedForAll",
      "outputs": [
        {
          "internalType": "bool",
          "name": "",
          "type": "bool"
        }
      ],
      "stateMutability": "view",
      "type": "function",
      "constant": true
    },
    {
      "inputs": [
        {
          "internalType": "address",
          "name": "from",
          "type": "address"
        },
        {
          "internalType": "address",
          "name": "to",
          "type": "address"
        },
        {
          "internalType": "uint256",
          "name": "tokenId",
          "type": "uint256"
        }
      ],
      "name": "transferFrom",
      "outputs": [],
      "stateMutability": "nonpayable",
      "type": "function"
    },
    {
      "inputs": [
        {
          "internalType": "address",
          "name": "from",
          "type": "address"
        },
        {
          "internalType": "address",
          "name": "to",
          "type": "address"
        },
        {
          "internalType": "uint256",
          "name": "tokenId",
          "type": "uint256"
        },
        {
          "internalType": "bytes",
          "name": "_data",
          "type": "bytes"
        }
      ],
      "name": "safeTransferFrom",
      "outputs": [],
      "stateMutability": "nonpayable",
      "type": "function"
    },
    {
      "inputs": [
        {
          "internalType": "address",
          "name": "from",
          "type": "address"
        },
        {
          "internalType": "address",
          "name": "to",
          "type": "address"
        },
        {
          "internalType": "uint256",
          "name": "tokenId",
          "type": "uint256"
        }
      ],
      "name": "safeTransferFrom",
      "outputs": [],
      "stateMutability": "nonpayable",
      "type": "function"
    }
  ],
  "bytecode": "0x6101c06040526000608081815260a082905260c082905260e08290526101008290526101208290526101408290526101608290526101808290526101a0919091526200005090600e90600a620003d2565b50604080516101408101825260008152600160208201526002918101919091526003606082015260046080820152600560a0820152600660c0820152600760e082015260086101008201526009610120820152620000b390601890600a620003d2565b50600a6022556103e8602381905560006024556027556029805460ff19169055348015620000e057600080fd5b50604051620034a1380380620034a1833981810160405260408110156200010657600080fd5b81019080805160405193929190846401000000008211156200012757600080fd5b9083019060208201858111156200013d57600080fd5b82516401000000008111828201881017156200015857600080fd5b82525081516020918201929091019080838360005b83811015620001875781810151838201526020016200016d565b50505050905090810190601f168015620001b55780820380516001836020036101000a031916815260200191505b5060405260200180516040519392919084640100000000821115620001d957600080fd5b908301906020820185811115620001ef57600080fd5b82516401000000008111828201881017156200020a57600080fd5b82525081516020918201929091019080838360005b83811015620002395781810151838201526020016200021f565b50505050905090810190601f168015620002675780820380516001836020036101000a031916815260200191505b506040525050506000620002806200034660201b60201c565b600080546001600160a01b0319166001600160a01b0383169081178255604051929350917f8be0079c531659141344cd1fd0a4f28419497f9722a3daafe3b4186f6b6457e0908290a350620002dc6301ffc9a760e01b6200034a565b8151620002f190600a9060208501906200041a565b5080516200030790600b9060208401906200041a565b506200031a6380ac58cd60e01b6200034a565b6200032c635b5e139f60e01b6200034a565b6200033e63780e9d6360e01b6200034a565b5050620004a4565b3390565b6001600160e01b03198082161415620003aa576040805162461bcd60e51b815260206004820152601c60248201527f4552433136353a20696e76616c696420696e7465726661636520696400000000604482015290519081900360640190fd5b6001600160e01b0319166000908152600160208190526040909120805460ff19169091179055565b82600a810192821562000408579160200282015b8281111562000408578251829060ff16905591602001919060010190620003e6565b50620004169291506200048d565b5090565b828054600181600116156101000203166002900490600052602060002090601f016020900481019282601f106200045d57805160ff191683800117855562000408565b8280016001018555821562000408579182015b828111156200040857825182559160200191906001019062000470565b5b808211156200041657600081556001016200048e565b612fed80620004b46000396000f3fe6080604052600436106101ee5760003560e01c8063715018a61161010d578063b5077f44116100a0578063cf44f3e51161006f578063cf44f3e5146107e0578063e985e9c514610833578063f00e6f141461086e578063f2fde38b14610891578063fb107a4f146108c4576101ee565b8063b5077f44146106a4578063b88d4fde146106b9578063c87b56dd1461078c578063c9ea86d1146107b6576101ee565b80639c8dff86116100dc5780639c8dff8614610615578063a22cb4651461062a578063a2fb117514610665578063b2cacca11461068f576101ee565b8063715018a6146105b95780638da5cb5b146105ce57806392642744146105e357806395d89b4114610600576101ee565b8063283a1e16116101855780634f6ccce7116101545780634f6ccce71461051d5780636352211e146105475780636c0360eb1461057157806370a0823114610586576101ee565b8063283a1e16146104775780632f745c591461048c5780633ccfd60b146104c557806342842e0e146104da576101ee565b80630c1d62fc116101c15780630c1d62fc1461034657806318160ddd1461035b5780631b23c4fe1461038257806323b872dd14610434576101ee565b806301ffc9a7146101f357806306fdde031461023b578063081812fc146102c5578063095ea7b31461030b575b600080fd5b3480156101ff57600080fd5b506102276004803603602081101561021657600080fd5b50356001600160e01b0319166108d9565b604080519115158252519081900360200190f35b34801561024757600080fd5b506102506108fc565b6040805160208082528351818301528351919283929083019185019080838360005b8381101561028a578181015183820152602001610272565b50505050905090810190601f1680156102b75780820380516001836020036101000a031916815260200191505b509250505060405180910390f35b3480156102d157600080fd5b506102ef600480360360208110156102e857600080fd5b5035610992565b604080516001600160a01b039092168252519081900360200190f35b34801561031757600080fd5b506103446004803603604081101561032e57600080fd5b506001600160a01b0381351690602001356109f4565b005b34801561035257600080fd5b50610250610acf565b34801561036757600080fd5b50610370610aeb565b60408051918252519081900360200190f35b34801561038e57600080fd5b50610344600480360360408110156103a557600080fd5b8101906020810181356401000000008111156103c057600080fd5b8201836020820111156103d257600080fd5b803590602001918460208302840111640100000000831117156103f457600080fd5b9190808060200260200160405190810160405280939291908181526020018383602002808284376000920191909152509295505091359250610afc915050565b34801561044057600080fd5b506103446004803603606081101561045757600080fd5b506001600160a01b03813581169160208101359091169060400135610c05565b34801561048357600080fd5b50610370610c5c565b34801561049857600080fd5b50610370600480360360408110156104af57600080fd5b506001600160a01b038135169060200135610d31565b3480156104d157600080fd5b50610344610d5c565b3480156104e657600080fd5b50610344600480360360608110156104fd57600080fd5b506001600160a01b03813581169160208101359091169060400135610df1565b34801561052957600080fd5b506103706004803603602081101561054057600080fd5b5035610e0c565b34801561055357600080fd5b506102ef6004803603602081101561056a57600080fd5b5035610e22565b34801561057d57600080fd5b50610250610e4a565b34801561059257600080fd5b50610370600480360360208110156105a957600080fd5b50356001600160a01b0316610eab565b3480156105c557600080fd5b50610344610f13565b3480156105da57600080fd5b506102ef610fbf565b610344600480360360208110156105f957600080fd5b5035610fce565b34801561060c57600080fd5b5061025061128f565b34801561062157600080fd5b506103706112f0565b34801561063657600080fd5b506103446004803603604081101561064d57600080fd5b506001600160a01b03813516906020013515156112f6565b34801561067157600080fd5b506102ef6004803603602081101561068857600080fd5b50356113fb565b34801561069b57600080fd5b50610344611416565b3480156106b057600080fd5b50610370611487565b3480156106c557600080fd5b50610344600480360360808110156106dc57600080fd5b6001600160a01b0382358116926020810135909116916040820135919081019060808101606082013564010000000081111561071757600080fd5b82018360208201111561072957600080fd5b8035906020019184600183028401116401000000008311171561074b57600080fd5b91908080601f01602080910402602001604051908101604052809392919081815260200183838082843760009201919091525092955061148d945050505050565b34801561079857600080fd5b50610250600480360360208110156107af57600080fd5b50356114eb565b3480156107c257600080fd5b506102ef600480360360208110156107d957600080fd5b503561176e565b3480156107ec57600080fd5b506108136004803603602081101561080357600080fd5b50356001600160a01b0316611789565b604080519315158452602084019290925282820152519081900360600190f35b34801561083f57600080fd5b506102276004803603604081101561085657600080fd5b506001600160a01b03813581169160200135166117ae565b6103446004803603604081101561088457600080fd5b50803590602001356117dc565b34801561089d57600080fd5b50610344600480360360208110156108b457600080fd5b50356001600160a01b0316611cef565b3480156108d057600080fd5b50610370611df1565b6001600160e01b0319811660009081526001602052604090205460ff165b919050565b600a8054604080516020601f60026000196101006001881615020190951694909404938401819004810282018101909252828152606093909290918301828280156109885780601f1061095d57610100808354040283529160200191610988565b820191906000526020600020905b81548152906001019060200180831161096b57829003601f168201915b5050505050905090565b600061099d82611e57565b6109d85760405162461bcd60e51b815260040180806020018281038252602c815260200180612ec2602c913960400191505060405180910390fd5b506000908152600560205260409020546001600160a01b031690565b60006109ff82610e22565b9050806001600160a01b0316836001600160a01b03161415610a525760405162461bcd60e51b8152600401808060200182810382526021815260200180612f666021913960400191505060405180910390fd5b806001600160a01b0316610a64611e64565b6001600160a01b03161480610a855750610a8581610a80611e64565b6117ae565b610ac05760405162461bcd60e51b8152600401808060200182810382526038815260200180612d8b6038913960400191505060405180910390fd5b610aca8383611e68565b505050565b604051806060016040528060408152602001612e3f6040913981565b6000610af76003611ed6565b905090565b610b04611e64565b6001600160a01b0316610b15610fbf565b6001600160a01b031614610b5e576040805162461bcd60e51b81526020600482018190526024820152600080516020612eee833981519152604482015290519081900360640190fd5b60295460ff1615610ba05760405162461bcd60e51b8152600401808060200182810382526024815260200180612d676024913960400191505060405180910390fd5b60005b8251811015610aca5760006023548302600e84600a8110610bc057fe5b0154019050610be2848381518110610bd457fe5b602002602001015182611ee1565b600e83600a8110610bef57fe5b0180546001908101909155919091019050610ba3565b610c16610c10611e64565b82611f10565b610c515760405162461bcd60e51b8152600401808060200182810382526031815260200180612f876031913960400191505060405180910390fd5b610aca838383611fb4565b3360009081526025602052604081205460ff1615610cab5760405162461bcd60e51b8152600401808060200182810382526024815260200180612cb96024913960400191505060405180910390fd5b610cb3612c1b565b505060408051606081018252600180825260278054602080850191825260008587018181523380835260258085528984209851895460ff191690151517895594518888019081559151600290980197909755845482526026835296812080546001600160a01b03191687179055835490940190925592909152525490565b6001600160a01b0382166000908152600260205260408120610d539083612100565b90505b92915050565b610d64611e64565b6001600160a01b0316610d75610fbf565b6001600160a01b031614610dbe576040805162461bcd60e51b81526020600482018190526024820152600080516020612eee833981519152604482015290519081900360640190fd5b6040514790339082156108fc029083906000818181858888f19350505050158015610ded573d6000803e3d6000fd5b5050565b610aca8383836040518060200160405280600081525061148d565b600080610e1a60038461210c565b509392505050565b6000610d5682604051806060016040528060298152602001612e166029913960039190612128565b600d8054604080516020601f60026000196101006001881615020190951694909404938401819004810282018101909252828152606093909290918301828280156109885780601f1061095d57610100808354040283529160200191610988565b60006001600160a01b038216610ef25760405162461bcd60e51b815260040180806020018281038252602a815260200180612dec602a913960400191505060405180910390fd5b6001600160a01b0382166000908152600260205260409020610d5690611ed6565b610f1b611e64565b6001600160a01b0316610f2c610fbf565b6001600160a01b031614610f75576040805162461bcd60e51b81526020600482018190526024820152600080516020612eee833981519152604482015290519081900360640190fd5b600080546040516001600160a01b03909116907f8be0079c531659141344cd1fd0a4f28419497f9722a3daafe3b4186f6b6457e0908390a3600080546001600160a01b0319169055565b6000546001600160a01b031690565b60295460ff16611019576040805162461bcd60e51b815260206004820152601160248201527014d85b19481a5cc81b9bdd081cdd185c9d607a1b604482015290519081900360640190fd5b612710611024610aeb565b1061106f576040805162461bcd60e51b815260206004820152601660248201527514d85b19481a185cc8185b1c9958591e48195b99195960521b604482015290519081900360640190fd5b600081116110bf576040805162461bcd60e51b815260206004820152601860248201527706e756d6265724f664e6674732063616e6e6f7420626520360441b604482015290519081900360640190fd5b60148111156110ff5760405162461bcd60e51b8152600401808060200182810382526029815260200180612dc36029913960400191505060405180910390fd5b6127106111148261110e610aeb565b9061213f565b1115611160576040805162461bcd60e51b815260206004820152601660248201527545786365656473204d41585f4e46545f535550504c5960501b604482015290519081900360640190fd5b346111738261116d611df1565b90612199565b146111c5576040805162461bcd60e51b815260206004820152601d60248201527f424e422076616c75652073656e74206973206e6f7420636f7272656374000000604482015290519081900360640190fd5b60005b818110156111ef5760006111da6121f2565b90506111e63382611ee1565b506001016111c8565b50600060248190556111ff610fbf565b6040516001600160a01b0391909116903490600081818185875af1925050503d806000811461124a576040519150601f19603f3d011682016040523d82523d6000602084013e61124f565b606091505b5050905080610ded5760405162461bcd60e51b815260040180806020018281038252603a815260200180612d01603a913960400191505060405180910390fd5b600b8054604080516020601f60026000196101006001881615020190951694909404938401819004810282018101909252828152606093909290918301828280156109885780601f1061095d57610100808354040283529160200191610988565b60275481565b6112fe611e64565b6001600160a01b0316826001600160a01b03161415611364576040805162461bcd60e51b815260206004820152601960248201527f4552433732313a20617070726f766520746f2063616c6c657200000000000000604482015290519081900360640190fd5b8060096000611371611e64565b6001600160a01b03908116825260208083019390935260409182016000908120918716808252919093529120805460ff1916921515929092179091556113b5611e64565b6001600160a01b03167f17307eab39ab6107e8899845ad3d59bd9653f200f220920489ca2b5937696c318360405180821515815260200191505060405180910390a35050565b6028602052600090815260409020546001600160a01b031681565b61141e611e64565b6001600160a01b031661142f610fbf565b6001600160a01b031614611478576040805162461bcd60e51b81526020600482018190526024820152600080516020612eee833981519152604482015290519081900360640190fd5b6029805460ff19166001179055565b61271081565b61149e611498611e64565b83611f10565b6114d95760405162461bcd60e51b8152600401808060200182810382526031815260200180612f876031913960400191505060405180910390fd5b6114e584848484612384565b50505050565b60606114f682611e57565b6115315760405162461bcd60e51b815260040180806020018281038252602f815260200180612f37602f913960400191505060405180910390fd5b6000828152600c602090815260409182902080548351601f60026000196101006001861615020190931692909204918201849004840281018401909452808452606093928301828280156115c65780601f1061159b576101008083540402835291602001916115c6565b820191906000526020600020905b8154815290600101906020018083116115a957829003601f168201915b5050505050905060606115d7610e4a565b90508051600014156115eb575090506108f7565b8151156116ac5780826040516020018083805190602001908083835b602083106116265780518252601f199092019160209182019101611607565b51815160209384036101000a600019018019909216911617905285519190930192850191508083835b6020831061166e5780518252601f19909201916020918201910161164f565b6001836020036101000a03801982511681845116808217855250505050505090500192505050604051602081830303815290604052925050506108f7565b806116b6856123d6565b6040516020018083805190602001908083835b602083106116e85780518252601f1990920191602091820191016116c9565b51815160209384036101000a600019018019909216911617905285519190930192850191508083835b602083106117305780518252601f199092019160209182019101611711565b6001836020036101000a0380198251168184511680821785525050505050509050019250505060405160208183030381529060405292505050919050565b6026602052600090815260409020546001600160a01b031681565b60256020526000908152604090208054600182015460029092015460ff909116919083565b6001600160a01b03918216600090815260096020908152604080832093909416825291909152205460ff1690565b60295460ff16611827576040805162461bcd60e51b815260206004820152601160248201527014d85b19481a5cc81b9bdd081cdd185c9d607a1b604482015290519081900360640190fd5b612710611832610aeb565b1061187d576040805162461bcd60e51b815260206004820152601660248201527514d85b19481a185cc8185b1c9958591e48195b99195960521b604482015290519081900360640190fd5b600082116118cd576040805162461bcd60e51b815260206004820152601860248201527706e756d6265724f664e6674732063616e6e6f7420626520360441b604482015290519081900360640190fd5b601482111561190d5760405162461bcd60e51b8152600401808060200182810382526029815260200180612dc36029913960400191505060405180910390fd5b61271061191c8361110e610aeb565b1115611968576040805162461bcd60e51b815260206004820152601660248201527545786365656473204d41585f4e46545f535550504c5960501b604482015290519081900360640190fd5b346119758361116d611df1565b146119c7576040805162461bcd60e51b815260206004820152601d60248201527f424e422076616c75652073656e74206973206e6f7420636f7272656374000000604482015290519081900360640190fd5b3460005b838110156119f25760006119dd6121f2565b90506119e93382611ee1565b506001016119cb565b5060006024819055828152602660209081526040808320546001600160a01b03168352602590915290205460ff1615611c55576000828152602660205260409020546001600160a01b03163314611c5557600082815260266020818152604080842080546001600160a01b03908116865260258452918520600201805489019055868552929091529054169081905b6005811015611b99576000818152602860209081526040808320546001600160a01b031680845260259092529091205460ff1615611b6357826001600160a01b0316816001600160a01b03161415611b005750600081815260286020526040902080546001600160a01b0319166001600160a01b038516179055611b99565b6001600160a01b038082166000908152602560205260408082206002908101549388168352912001541115611b5e57600082815260286020526040902080546001600160a01b0319166001600160a01b039590951694909417909355825b611b90565b50600081815260286020526040902080546001600160a01b0319166001600160a01b038516179055611b99565b50600101611a81565b5060008481526026602052604080822054905168056bc75e2d6310000088810296879003969093909290916001600160a01b039091169083908381818185875af1925050503d8060008114611c0a576040519150601f19603f3d011682016040523d82523d6000602084013e611c0f565b606091505b5050905080611c4f5760405162461bcd60e51b815260040180806020018281038252603a815260200180612d01603a913960400191505060405180910390fd5b50505050505b6000611c5f610fbf565b6040516001600160a01b0391909116908390600081818185875af1925050503d8060008114611caa576040519150601f19603f3d011682016040523d82523d6000602084013e611caf565b606091505b50509050806114e55760405162461bcd60e51b815260040180806020018281038252603a815260200180612d01603a913960400191505060405180910390fd5b611cf7611e64565b6001600160a01b0316611d08610fbf565b6001600160a01b031614611d51576040805162461bcd60e51b81526020600482018190526024820152600080516020612eee833981519152604482015290519081900360640190fd5b6001600160a01b038116611d965760405162461bcd60e51b8152600401808060200182810382526026815260200180612c936026913960400191505060405180910390fd5b600080546040516001600160a01b03808516939216917f8be0079c531659141344cd1fd0a4f28419497f9722a3daafe3b4186f6b6457e091a3600080546001600160a01b0319166001600160a01b0392909216919091179055565b6000612710611dfe610aeb565b10611e49576040805162461bcd60e51b815260206004820152601660248201527514d85b19481a185cc8185b1c9958591e48195b99195960521b604482015290519081900360640190fd5b50683635c9adc5dea0000090565b6000610d566003836124b1565b3390565b600081815260056020526040902080546001600160a01b0319166001600160a01b0384169081179091558190611e9d82610e22565b6001600160a01b03167f8c5be1e5ebec7d5bd14f71427d1e84f3dd0314c0f7b2291e5b200ac8c7c3b92560405160405180910390a45050565b6000610d56826124bd565b612710611eec610aeb565b10611ef657600080fd5b610ded8282604051806020016040528060008152506124c1565b6000611f1b82611e57565b611f565760405162461bcd60e51b815260040180806020018281038252602c815260200180612d3b602c913960400191505060405180910390fd5b6000611f6183610e22565b9050806001600160a01b0316846001600160a01b03161480611f9c5750836001600160a01b0316611f9184610992565b6001600160a01b0316145b80611fac5750611fac81856117ae565b949350505050565b826001600160a01b0316611fc782610e22565b6001600160a01b03161461200c5760405162461bcd60e51b8152600401808060200182810382526029815260200180612f0e6029913960400191505060405180910390fd5b6001600160a01b0382166120515760405162461bcd60e51b8152600401808060200182810382526024815260200180612cdd6024913960400191505060405180910390fd5b61205c838383610aca565b612067600082611e68565b6001600160a01b03831660009081526002602052604090206120899082612528565b506001600160a01b03821660009081526002602052604090206120ac9082612534565b506120b960038284612540565b5080826001600160a01b0316846001600160a01b03167fddf252ad1be2c89b69c2b068fc378daa952ba7f163c4a11628f55a4df523b3ef60405160405180910390a4505050565b6000610d538383612556565b600080808061211b86866125ba565b9097909650945050505050565b6000612135848484612635565b90505b9392505050565b600082820183811015610d53576040805162461bcd60e51b815260206004820152601b60248201527f536166654d6174683a206164646974696f6e206f766572666c6f770000000000604482015290519081900360640190fd5b6000826121a857506000610d56565b828202828482816121b557fe5b0414610d535760405162461bcd60e51b8152600401808060200182810382526021815260200180612ea16021913960400191505060405180910390fd5b6000600160225411156122a75760248054600101905560005b6022548110156122a157600081602254036024544201604051602001808281526020019150506040516020818303038152906040528051906020012060001c8161225157fe5b06820190506000601882600a811061226557fe5b01549050601883600a811061227657fe5b0154601883600a811061228557fe5b015580601884600a811061229557fe5b0155505060010161220b565b5061230f565b602354601854600e90600a81106122ba57fe5b0154141561230f576040805162461bcd60e51b815260206004820152601860248201527f776520646f6e2774206861766520616e79206974656d20210000000000000000604482015290519081900360640190fd5b602354601854600091810290600e90600a811061232857fe5b0154019050600e601860000154600a811061233f57fe5b0180546001019055602354601854600e90600a811061235a57fe5b015410610af757602280546000190190819055601890600a811061237a57fe5b0154601855919050565b61238f848484611fb4565b61239b848484846126ff565b6114e55760405162461bcd60e51b8152600401808060200182810382526032815260200180612c616032913960400191505060405180910390fd5b6060816123fb57506040805180820190915260018152600360fc1b60208201526108f7565b8160005b811561241357600101600a820491506123ff565b60608167ffffffffffffffff8111801561242c57600080fd5b506040519080825280601f01601f191660200182016040528015612457576020820181803683370190505b50859350905060001982015b83156124a857600a840660300160f81b8282806001900393508151811061248657fe5b60200101906001600160f81b031916908160001a905350600a84049350612463565b50949350505050565b6000610d538383612928565b5490565b6124cb8383612940565b6127106124d6610aeb565b106124e057600080fd5b6124ed60008484846126ff565b610aca5760405162461bcd60e51b8152600401808060200182810382526032815260200180612c616032913960400191505060405180910390fd5b6000610d538383612a6e565b6000610d538383612b34565b600061213584846001600160a01b038516612b7e565b815460009082106125985760405162461bcd60e51b8152600401808060200182810382526022815260200180612c3f6022913960400191505060405180910390fd5b8260000182815481106125a757fe5b9060005260206000200154905092915050565b8154600090819083106125fe5760405162461bcd60e51b8152600401808060200182810382526022815260200180612e7f6022913960400191505060405180910390fd5b600084600001848154811061260f57fe5b906000526020600020906002020190508060000154816001015492509250509250929050565b600082815260018401602052604081205482816126d05760405162461bcd60e51b81526004018080602001828103825283818151815260200191508051906020019080838360005b8381101561269557818101518382015260200161267d565b50505050905090810190601f1680156126c25780820380516001836020036101000a031916815260200191505b509250505060405180910390fd5b508460000160018203815481106126e357fe5b9060005260206000209060020201600101549150509392505050565b6000612713846001600160a01b0316612c15565b61271f57506001611fac565b600060606001600160a01b038616630a85bd0160e11b61273d611e64565b89888860405160240180856001600160a01b03168152602001846001600160a01b0316815260200183815260200180602001828103825283818151815260200191508051906020019080838360005b838110156127a457818101518382015260200161278c565b50505050905090810190601f1680156127d15780820380516001836020036101000a031916815260200191505b5060408051601f198184030181529181526020820180516001600160e01b03166001600160e01b0319909a16999099178952518151919890975087965094509250829150849050835b602083106128395780518252601f19909201916020918201910161281a565b6001836020036101000a0380198251168184511680821785525050505050509050019150506000604051808303816000865af19150503d806000811461289b576040519150601f19603f3d011682016040523d82523d6000602084013e6128a0565b606091505b5091509150816128f1578051156128ba5780518082602001fd5b60405162461bcd60e51b8152600401808060200182810382526032815260200180612c616032913960400191505060405180910390fd5b600081806020019051602081101561290857600080fd5b50516001600160e01b031916630a2ebf0f60e31b149350611fac92505050565b60009081526001919091016020526040902054151590565b6001600160a01b03821661299b576040805162461bcd60e51b815260206004820181905260248201527f4552433732313a206d696e7420746f20746865207a65726f2061646472657373604482015290519081900360640190fd5b6129a481611e57565b156129f6576040805162461bcd60e51b815260206004820152601c60248201527f4552433732313a20746f6b656e20616c7265616479206d696e74656400000000604482015290519081900360640190fd5b612a0260008383610aca565b6001600160a01b0382166000908152600260205260409020612a249082612534565b50612a3160038284612540565b5060405181906001600160a01b038416906000907fddf252ad1be2c89b69c2b068fc378daa952ba7f163c4a11628f55a4df523b3ef908290a45050565b60008181526001830160205260408120548015612b2a5783546000198083019190810190600090879083908110612aa157fe5b9060005260206000200154905080876000018481548110612abe57fe5b600091825260208083209091019290925582815260018981019092526040902090840190558654879080612aee57fe5b60019003818190600052602060002001600090559055866001016000878152602001908152602001600020600090556001945050505050610d56565b6000915050610d56565b6000612b408383612928565b612b7657508154600181810184556000848152602080822090930184905584548482528286019093526040902091909155610d56565b506000610d56565b600082815260018401602052604081205480612be3575050604080518082018252838152602080820184815286546001818101895560008981528481209551600290930290950191825591519082015586548684528188019092529290912055612138565b82856000016001830381548110612bf657fe5b9060005260206000209060020201600101819055506000915050612138565b3b151590565b60405180606001604052806000151581526020016000815260200160008152509056fe456e756d657261626c655365743a20696e646578206f7574206f6620626f756e64734552433732313a207472616e7366657220746f206e6f6e20455243373231526563656976657220696d706c656d656e7465724f776e61626c653a206e6577206f776e657220697320746865207a65726f206164647265737354686973206163636f756e7420616c726561647920737461727465642061697264726f704552433732313a207472616e7366657220746f20746865207a65726f2061646472657373416464726573733a20756e61626c6520746f2073656e642076616c75652c20726563697069656e74206d617920686176652072657665727465644552433732313a206f70657261746f7220717565727920666f72206e6f6e6578697374656e7420746f6b656e596f752063616e206e6f7420646f206974207768656e2073616c652069732073746172744552433732313a20617070726f76652063616c6c6572206973206e6f74206f776e6572206e6f7220617070726f76656420666f7220616c6c596f75206d6179206e6f7420627579206d6f7265207468616e203230204e465473206174206f6e63654552433732313a2062616c616e636520717565727920666f7220746865207a65726f20616464726573734552433732313a206f776e657220717565727920666f72206e6f6e6578697374656e7420746f6b656e66666139393333383832353364313531653936656432643638663965643738623366316163326263366532633563663530343164333038393764643239343364456e756d657261626c654d61703a20696e646578206f7574206f6620626f756e6473536166654d6174683a206d756c7469706c69636174696f6e206f766572666c6f774552433732313a20617070726f76656420717565727920666f72206e6f6e6578697374656e7420746f6b656e4f776e61626c653a2063616c6c6572206973206e6f7420746865206f776e65724552433732313a207472616e73666572206f6620746f6b656e2074686174206973206e6f74206f776e4552433732314d657461646174613a2055524920717565727920666f72206e6f6e6578697374656e7420746f6b656e4552433732313a20617070726f76616c20746f2063757272656e74206f776e65724552433732313a207472616e736665722063616c6c6572206973206e6f74206f776e6572206e6f7220617070726f766564a26469706673582212205c24d38e3e5ac695546b9f832fcaf0febdf446793db1c19ff463955ed05d7c6f64736f6c634300060c0033",
  "immutableReferences": {},
  "source": "// SPDX-License-Identifier: MIT\npragma solidity ^0.6.12;\n\nimport \"@openzeppelin/contracts/access/Ownable.sol\";\nimport \"@openzeppelin/contracts/introspection/ERC165.sol\";\nimport \"@openzeppelin/contracts/math/SafeMath.sol\";\nimport \"@openzeppelin/contracts/token/ERC721/IERC721Metadata.sol\";\nimport \"@openzeppelin/contracts/token/ERC721/IERC721Receiver.sol\";\nimport \"@openzeppelin/contracts/utils/Address.sol\";\nimport \"@openzeppelin/contracts/utils/EnumerableMap.sol\";\nimport \"@openzeppelin/contracts/utils/EnumerableSet.sol\";\nimport \"@openzeppelin/contracts/utils/Strings.sol\";\n\n/**\n * @title CrossPunks contract\n * @dev Extends ERC721 Non-Fungible Token Standard basic implementation\n */\ncontract CrossPunks is Ownable, ERC165, IERC721Metadata {\n    using SafeMath for uint256;\n    using Address for address;\n    using EnumerableSet for EnumerableSet.UintSet;\n    using EnumerableMap for EnumerableMap.UintToAddressMap;\n    using Strings for uint256;\n\n    // Public variables\n\n    // This is the provenance record of all artwork in existence\n    // openssl dgst -sha256 punks-modify.png\n    string public constant CROSSPUNKS_PROVENANCE = \"ffa993388253d151e96ed2d68f9ed78b3f1ac2bc6e2c5cf5041d30897dd2943d\";\n\n    uint256 public constant MAX_NFT_SUPPLY = 10000;\n\n    // uint256 public startingIndexBlock;\n\n    // uint256 public startingIndex;\n\n    // Equals to `bytes4(keccak256(\"onERC721Received(address,address,uint256,bytes)\"))`\n    // which can be also obtained as `IERC721Receiver(0).onERC721Received.selector`\n    bytes4 private constant _ERC721_RECEIVED = 0x5175f878;\n\n    // Mapping from holder address to their (enumerable) set of owned tokens\n    mapping (address => EnumerableSet.UintSet) private _holderTokens;\n\n    // Enumerable mapping from token ids to their owners\n    EnumerableMap.UintToAddressMap private _tokenOwners;\n\n    // Mapping from token ID to approved address\n    mapping (uint256 => address) private _tokenApprovals;\n\n    // Mapping from token ID to name\n    mapping (uint256 => string) private _tokenName;\n\n    // Mapping if certain name string has already been reserved\n    mapping (string => bool) private _nameReserved;\n\n    // Mapping from token ID to whether minted before reveal\n    mapping (uint256 => bool) private _mintedBeforeReveal;\n    \n    // Mapping from owner to operator approvals\n    mapping (address => mapping (address => bool)) private _operatorApprovals;\n\n    // Token name\n    string private _name;\n\n    // Token symbol\n    string private _symbol;\n\n    // Optional mapping for token URIs\n    mapping (uint256 => string) private _tokenURIs;\n\n    // Base URI\n    string private _baseURI;\n\n    // for randomized\n    uint256[10] private _punksIndex = [0, 0, 0, 0, 0, 0, 0, 0, 0, 0];\n    uint256[10] private _punksIndexExists = [0, 1, 2, 3, 4, 5, 6, 7, 8, 9];\n    uint256 private _punksIndexExistsLength = 10;\n    uint256 private _punksPerColum = 1000;\n    uint256 private _nonce = 0;\n    \n    // for intvite\n    struct UserAirdrop {\n        bool isExists;\n        uint256 id;\n        // mapping (uint256 => address) referral;\n        uint256 referralBuyIndex;\n    }\n    \n    mapping (address => UserAirdrop) public usersAirdrop;\n    mapping (uint256 => address) public usersAirdropAddress;\n    \n    uint256 public airDropId = 1000;\n    \n    mapping (uint256 => address) public winners;\n    \n    function startAirDrop() public returns (uint256){\n        require(!usersAirdrop[msg.sender].isExists, \"This account already started airdrop\");\n        \n        UserAirdrop memory ua = UserAirdrop({\n            isExists : true,\n            id : airDropId,\n            referralBuyIndex : 0\n        });\n        \n        usersAirdrop[msg.sender] = ua;\n        usersAirdropAddress[airDropId] = msg.sender;\n        airDropId++;\n        return usersAirdrop[msg.sender].id;\n    }\n\n    // initialize\n    bool private _startSale = false;\n    /*\n     *     bytes4(keccak256('balanceOf(address)')) == 0x70a08231\n     *     bytes4(keccak256('ownerOf(uint256)')) == 0x6352211e\n     *     bytes4(keccak256('approve(address,uint256)')) == 0x095ea7b3\n     *     bytes4(keccak256('getApproved(uint256)')) == 0x081812fc\n     *     bytes4(keccak256('setApprovalForAll(address,bool)')) == 0xa22cb465\n     *     bytes4(keccak256('isApprovedForAll(address,address)')) == 0xe985e9c5\n     *     bytes4(keccak256('transferFrom(address,address,uint256)')) == 0x23b872dd\n     *     bytes4(keccak256('safeTransferFrom(address,address,uint256)')) == 0x42842e0e\n     *     bytes4(keccak256('safeTransferFrom(address,address,uint256,bytes)')) == 0xb88d4fde\n     *\n     *     => 0x70a08231 ^ 0x6352211e ^ 0x095ea7b3 ^ 0x081812fc ^\n     *        0xa22cb465 ^ 0xe985e9c5 ^ 0x23b872dd ^ 0x42842e0e ^ 0xb88d4fde == 0x80ac58cd\n     */\n    bytes4 private constant _INTERFACE_ID_ERC721 = 0x80ac58cd;\n\n    /*\n     *     bytes4(keccak256('name()')) == 0x06fdde03\n     *     bytes4(keccak256('symbol()')) == 0x95d89b41\n     *\n     *     => 0x06fdde03 ^ 0x95d89b41 == 0x93254542\n     */\n    bytes4 private constant _INTERFACE_ID_ERC721_METADATA = 0x5b5e139f;\n\n    /*\n     *     bytes4(keccak256('totalSupply()')) == 0x18160ddd\n     *     bytes4(keccak256('tokenOfOwnerByIndex(address,uint256)')) == 0x2f745c59\n     *     bytes4(keccak256('tokenByIndex(uint256)')) == 0x4f6ccce7\n     *\n     *     => 0x18160ddd ^ 0x2f745c59 ^ 0x4f6ccce7 == 0x780e9d63\n     */\n    bytes4 private constant _INTERFACE_ID_ERC721_ENUMERABLE = 0x780e9d63;\n\n    // Events\n    event NameChange (uint256 indexed maskIndex, string newName);\n\n    /**\n     * @dev Initializes the contract by setting a `name` and a `symbol` to the token collection.\n     */\n    constructor (string memory name, string memory symbol) public {\n        _name = name;\n        _symbol = symbol;\n\n        // register the supported interfaces to conform to ERC721 via ERC165\n        _registerInterface(_INTERFACE_ID_ERC721);\n        _registerInterface(_INTERFACE_ID_ERC721_METADATA);\n        _registerInterface(_INTERFACE_ID_ERC721_ENUMERABLE);\n    }\n    \n    function initializeOwners(address[] memory users, uint256 _column) public onlyOwner {\n        require(!_startSale, \"You can not do it when sale is start\");\n        \n        for(uint256 i=0; i<users.length;i++){\n            uint256 pIndex = ((_punksIndex[_column]) + ((_column * _punksPerColum)));\n            _safeMint(users[i], pIndex);\n            _punksIndex[_column]++;\n        }\n    }\n    \n    function finishInitilizeOwners() public onlyOwner {\n        _startSale = true;\n    }\n\n    /**\n     * @dev See {IERC721-balanceOf}.\n     */\n    function balanceOf(address owner) public view override returns (uint256) {\n        require(owner != address(0), \"ERC721: balance query for the zero address\");\n        return _holderTokens[owner].length();\n    }\n\n    /**\n     * @dev See {IERC721-ownerOf}.\n     */\n    function ownerOf(uint256 tokenId) public view override returns (address) {\n        return _tokenOwners.get(tokenId, \"ERC721: owner query for nonexistent token\");\n    }\n\n    /**\n     * @dev See {IERC721Metadata-name}.\n     */\n    function name() public view override returns (string memory) {\n        return _name;\n    }\n\n    /**\n     * @dev See {IERC721Metadata-symbol}.\n     */\n    function symbol() public view override returns (string memory) {\n        return _symbol;\n    }\n\n    /**\n     * @dev See {IERC721Metadata-tokenURI}.\n     */\n    function tokenURI(uint256 tokenId) public view virtual override returns (string memory) {\n        require(_exists(tokenId), \"ERC721Metadata: URI query for nonexistent token\");\n\n        string memory _tokenURI = _tokenURIs[tokenId];\n        string memory base = baseURI();\n\n        // If there is no base URI, return the token URI.\n        if (bytes(base).length == 0) {\n            return _tokenURI;\n        }\n        // If both are set, concatenate the baseURI and tokenURI (via abi.encodePacked).\n        if (bytes(_tokenURI).length > 0) {\n            return string(abi.encodePacked(base, _tokenURI));\n        }\n        // If there is a baseURI but no tokenURI, concatenate the tokenID to the baseURI.\n        return string(abi.encodePacked(base, tokenId.toString()));\n    }\n\n    /**\n    * @dev Returns the base URI set via {_setBaseURI}. This will be\n    * automatically added as a prefix in {tokenURI} to each token's URI, or\n    * to the token ID if no specific URI is set for that token ID.\n    */\n    function baseURI() public view virtual returns (string memory) {\n        return _baseURI;\n    }\n\n    /**\n     * @dev See {IERC721Enumerable-tokenOfOwnerByIndex}.\n     */\n    function tokenOfOwnerByIndex(address owner, uint256 index) public view returns (uint256) {\n        return _holderTokens[owner].at(index);\n    }\n\n    /**\n     * @dev See {IERC721Enumerable-totalSupply}.\n     */\n    function totalSupply() public view returns (uint256) {\n        // _tokenOwners are indexed by tokenIds, so .length() returns the number of tokenIds\n        return _tokenOwners.length();\n    }\n\n    /**\n     * @dev See {IERC721Enumerable-tokenByIndex}.\n     */\n    function tokenByIndex(uint256 index) public view returns (uint256) {\n        (uint256 tokenId, ) = _tokenOwners.at(index);\n        return tokenId;\n    }\n\n    /**\n     * @dev Gets current CrossPunk Price\n     */\n    function getNFTPrice() public view returns (uint256) {\n        require(totalSupply() < MAX_NFT_SUPPLY, \"Sale has already ended\");\n        return 1000 ether;\n        \n    }\n\n    /**\n    * @dev Mints CrossPunk\n    */\n    function mintNFT(uint256 numberOfNfts) public payable {\n        require(_startSale, \"Sale is not start\");\n        require(totalSupply() < MAX_NFT_SUPPLY, \"Sale has already ended\");\n        require(numberOfNfts > 0, \"numberOfNfts cannot be 0\");\n        require(numberOfNfts <= 20, \"You may not buy more than 20 NFTs at once\");\n        require(totalSupply().add(numberOfNfts) <= MAX_NFT_SUPPLY, \"Exceeds MAX_NFT_SUPPLY\");\n        require(getNFTPrice().mul(numberOfNfts) == msg.value, \"BNB value sent is not correct\");\n\n        for (uint i = 0; i < numberOfNfts; i++) {\n            uint256 mintIndex = _getNextPunkIndex();\n            _safeMint(msg.sender, mintIndex);\n        }\n\n        _nonce = 0;\n        \n        (bool success, ) = address(uint160(owner())).call{ value: msg.value }(\"\");\n        require(success, \"Address: unable to send value, recipient may have reverted\");\n    }\n    \n    /**\n    * @dev Mints CrossPunk\n    */\n    function mintNFTAirDrop(uint256 numberOfNfts, uint256 _airDropId) public payable {\n        require(_startSale, \"Sale is not start\");\n        require(totalSupply() < MAX_NFT_SUPPLY, \"Sale has already ended\");\n        require(numberOfNfts > 0, \"numberOfNfts cannot be 0\");\n        require(numberOfNfts <= 20, \"You may not buy more than 20 NFTs at once\");\n        require(totalSupply().add(numberOfNfts) <= MAX_NFT_SUPPLY, \"Exceeds MAX_NFT_SUPPLY\");\n        require(getNFTPrice().mul(numberOfNfts) == msg.value, \"BNB value sent is not correct\");\n\n        uint256 msgValue = msg.value;\n\n        for (uint i = 0; i < numberOfNfts; i++) {\n            uint256 mintIndex = _getNextPunkIndex();\n            _safeMint(msg.sender, mintIndex);\n        }\n\n        _nonce = 0;\n\n        if(usersAirdrop[usersAirdropAddress[_airDropId]].isExists){\n            if(usersAirdropAddress[_airDropId] != msg.sender){\n                usersAirdrop[usersAirdropAddress[_airDropId]].referralBuyIndex = usersAirdrop[usersAirdropAddress[_airDropId]].referralBuyIndex + numberOfNfts;\n                \n                address ads = usersAirdropAddress[_airDropId];\n                address _fads = ads;\n                \n                for (uint256 i=0; i<5; i++) {\n                    address wads = winners[i];\n                    if (usersAirdrop[wads].isExists) {\n                        if (wads == _fads) {\n                            winners[i] = ads;\n                            break;\n                        } else if(usersAirdrop[ads].referralBuyIndex > usersAirdrop[wads].referralBuyIndex) {\n                            winners[i] = ads;\n                            ads = wads;\n                        }  \n                    } else {\n                        winners[i] = ads;\n                        break;\n                    }\n                }\n\n                uint256 airDropReward = 100 ether;\n                uint256 amount = airDropReward * numberOfNfts;                \n                msgValue = msgValue - amount;\n                \n                (bool success, ) = address(uint160(usersAirdropAddress[_airDropId])).call{ value: amount }(\"\");\n                require(success, \"Address: unable to send value, recipient may have reverted\");\n            }\n        }\n        \n        (bool success, ) = address(uint160(owner())).call{ value: msgValue }(\"\");\n        require(success, \"Address: unable to send value, recipient may have reverted\");\n    }\n    \n    /**\n     * @dev Withdraw ether from this contract (Callable by owner)\n    */\n    function withdraw() external onlyOwner {\n        uint balance = address(this).balance;\n        msg.sender.transfer(balance);\n    }\n\n\n    function _getNextPunkIndex() private returns(uint256) {\n        if(_punksIndexExistsLength > 1){\n            _nonce++;\n            for (uint256 i = 0; i < _punksIndexExistsLength; i++) {\n                uint256 n = i + uint256(keccak256(abi.encodePacked(now + _nonce))) % (_punksIndexExistsLength - i);\n                uint256 temp = _punksIndexExists[n];\n                _punksIndexExists[n] = _punksIndexExists[i];\n                _punksIndexExists[i] = temp;\n            }\n        } else if(_punksIndex[_punksIndexExists[0]] == _punksPerColum) {\n            revert(\"we don't have any item !\");\n        }\n        \n        uint256 pIndex = ((_punksIndex[_punksIndexExists[0]]) + ((_punksIndexExists[0] * _punksPerColum)));\n        \n        _punksIndex[_punksIndexExists[0]]++;\n        \n        if(_punksIndex[_punksIndexExists[0]] >= _punksPerColum){\n            _punksIndexExistsLength--;\n            _punksIndexExists[0] = _punksIndexExists[_punksIndexExistsLength];\n        }\n        \n        return pIndex;\n    }\n\n    /**\n     * @dev See {IERC721-approve}.\n     */\n    function approve(address to, uint256 tokenId) public override {\n        address owner = ownerOf(tokenId);\n        require(to != owner, \"ERC721: approval to current owner\");\n\n        require(_msgSender() == owner || isApprovedForAll(owner, _msgSender()),\n            \"ERC721: approve caller is not owner nor approved for all\"\n        );\n\n        _approve(to, tokenId);\n    }\n\n    /**\n     * @dev See {IERC721-getApproved}.\n     */\n    function getApproved(uint256 tokenId) public view override returns (address) {        \n        require(_exists(tokenId), \"ERC721: approved query for nonexistent token\");\n        return _tokenApprovals[tokenId];\n    }\n\n    /**\n     * @dev See {IERC721-setApprovalForAll}.\n     */\n    function setApprovalForAll(address operator, bool approved) public override {\n        require(operator != _msgSender(), \"ERC721: approve to caller\");\n\n        _operatorApprovals[_msgSender()][operator] = approved;\n        emit ApprovalForAll(_msgSender(), operator, approved);\n    }\n\n    /**\n     * @dev See {IERC721-isApprovedForAll}.\n     */\n    function isApprovedForAll(address owner, address operator) public view override returns (bool) {\n        return _operatorApprovals[owner][operator];\n    }\n\n    /**\n     * @dev See {IERC721-transferFrom}.\n     */\n    function transferFrom(address from, address to, uint256 tokenId) public override {\n        //solhint-disable-next-line max-line-length\n        require(_isApprovedOrOwner(_msgSender(), tokenId), \"ERC721: transfer caller is not owner nor approved\");\n\n        _transfer(from, to, tokenId);\n    }\n\n    /**\n     * @dev See {IERC721-safeTransferFrom}.\n     */\n    function safeTransferFrom(address from, address to, uint256 tokenId) public override {\n        safeTransferFrom(from, to, tokenId, \"\");\n    }\n\n    /**\n     * @dev See {IERC721-safeTransferFrom}.\n     */\n    function safeTransferFrom(address from, address to, uint256 tokenId, bytes memory _data) public override {\n        require(_isApprovedOrOwner(_msgSender(), tokenId), \"ERC721: transfer caller is not owner nor approved\");\n        _safeTransfer(from, to, tokenId, _data);\n    }\n\n    /**\n     * @dev Safely transfers `tokenId` token from `from` to `to`, checking first that contract recipients\n     * are aware of the ERC721 protocol to prevent tokens from being forever locked.\n     *\n     * `_data` is additional data, it has no specified format and it is sent in call to `to`.\n     *\n     * This internal function is equivalent to {safeTransferFrom}, and can be used to e.g.\n     * implement alternative mechanisms to perform token transfer, such as signature-based.\n     *\n     * Requirements:\n     *\n     * - `from` cannot be the zero address.\n     * - `to` cannot be the zero address.\n     * - `tokenId` token must exist and be owned by `from`.\n     * - If `to` refers to a smart contract, it must implement {IERC721Receiver-onERC721Received}, which is called upon a safe transfer.\n     *\n     * Emits a {Transfer} event.\n     */\n    function _safeTransfer(address from, address to, uint256 tokenId, bytes memory _data) internal {\n        _transfer(from, to, tokenId);\n        require(_checkOnERC721Received(from, to, tokenId, _data), \"ERC721: transfer to non ERC721Receiver implementer\");\n    }\n\n    /**\n     * @dev Returns whether `tokenId` exists.\n     *\n     * Tokens can be managed by their owner or approved accounts via {approve} or {setApprovalForAll}.\n     *\n     * Tokens start existing when they are minted (`_mint`),\n     * and stop existing when they are burned (`_burn`).\n     */\n    function _exists(uint256 tokenId) internal view returns (bool) {\n        return _tokenOwners.contains(tokenId);\n    }\n\n    /**\n     * @dev Returns whether `spender` is allowed to manage `tokenId`.\n     *\n     * Requirements:\n     *\n     * - `tokenId` must exist.\n     */\n    function _isApprovedOrOwner(address spender, uint256 tokenId) internal view returns (bool) {\n        require(_exists(tokenId), \"ERC721: operator query for nonexistent token\");\n        address owner = ownerOf(tokenId);\n        return (spender == owner || getApproved(tokenId) == spender || isApprovedForAll(owner, spender));\n    }\n\n    /**\n     * @dev Safely mints `tokenId` and transfers it to `to`.\n     *\n     * Requirements:\n     d*\n     * - `tokenId` must not exist.\n     * - If `to` refers to a smart contract, it must implement {IERC721Receiver-onERC721Received}, which is called upon a safe transfer.\n     *\n     * Emits a {Transfer} event.\n     */\n    function _safeMint(address to, uint256 tokenId) internal {\n        require(totalSupply() < MAX_NFT_SUPPLY);\n        _safeMint(to, tokenId, \"\");\n\n    }\n\n    /**\n     * @dev Same as {xref-ERC721-_safeMint-address-uint256-}[`_safeMint`], with an additional `data` parameter which is\n     * forwarded in {IERC721Receiver-onERC721Received} to contract recipients.\n     */\n    function _safeMint(address to, uint256 tokenId, bytes memory _data) internal {\n        _mint(to, tokenId);\n        require(totalSupply() < MAX_NFT_SUPPLY);\n        require(_checkOnERC721Received(address(0), to, tokenId, _data), \"ERC721: transfer to non ERC721Receiver implementer\");\n    }\n\n    /**\n     * @dev Mints `tokenId` and transfers it to `to`.\n     *\n     * WARNING: Usage of this method is discouraged, use {_safeMint} whenever possible\n     *\n     * Requirements:\n     *\n     * - `tokenId` must not exist.\n     * - `to` cannot be the zero address.\n     *\n     * Emits a {Transfer} event.\n     */\n    function _mint(address to, uint256 tokenId) internal {\n        require(to != address(0), \"ERC721: mint to the zero address\");\n        require(!_exists(tokenId), \"ERC721: token already minted\");\n\n        _beforeTokenTransfer(address(0), to, tokenId);\n\n        _holderTokens[to].add(tokenId);\n\n        _tokenOwners.set(tokenId, to);\n\n        emit Transfer(address(0), to, tokenId);\n    }\n\n    /**\n     * @dev Destroys `tokenId`.\n     * The approval is cleared when the token is burned.\n     *\n     * Requirements:\n     *\n     * - `tokenId` must exist.\n     *\n     * Emits a {Transfer} event.\n     */\n    function _burn(uint256 tokenId) internal {\n        address owner = ownerOf(tokenId);\n\n        _beforeTokenTransfer(owner, address(0), tokenId);\n\n        // Clear approvals\n        _approve(address(0), tokenId);\n\n        _holderTokens[owner].remove(tokenId);\n        _tokenOwners.remove(tokenId);\n\n        emit Transfer(owner, address(0), tokenId);\n    }\n\n    /**\n     * @dev Transfers `tokenId` from `from` to `to`.\n     *  As opposed to {transferFrom}, this imposes no restrictions on msg.sender.\n     *\n     * Requirements:\n     *\n     * - `to` cannot be the zero address.\n     * - `tokenId` token must be owned by `from`.\n     *\n     * Emits a {Transfer} event.\n     */\n    function _transfer(address from, address to, uint256 tokenId) internal {\n        require(ownerOf(tokenId) == from, \"ERC721: transfer of token that is not own\");\n        require(to != address(0), \"ERC721: transfer to the zero address\");\n\n        _beforeTokenTransfer(from, to, tokenId);\n\n        // Clear approvals from the previous owner\n        _approve(address(0), tokenId);\n\n        _holderTokens[from].remove(tokenId);\n        _holderTokens[to].add(tokenId);\n\n        _tokenOwners.set(tokenId, to);\n\n        emit Transfer(from, to, tokenId);\n    }\n\n\n    /**\n     * @dev Internal function to invoke {IERC721Receiver-onERC721Received} on a target address.\n     * The call is not executed if the target address is not a contract.\n     *\n     * @param from address representing the previous owner of the given token ID\n     * @param to target address that will receive the tokens\n     * @param tokenId uint256 ID of the token to be transferred\n     * @param _data bytes optional data to send along with the call\n\n     * @return bool whether the call correctly returned the expected magic value\n     */\n    function _checkOnERC721Received(address from, address to, uint256 tokenId, bytes memory _data)\n        internal returns (bool)\n    {\n        if (!to.isContract()) {\n            return true;\n        }\n        // solhint-disable-next-line avoid-low-level-calls\n        (bool success, bytes memory returndata) = to.call(abi.encodeWithSelector(\n            IERC721Receiver(to).onERC721Received.selector,\n            _msgSender(),\n            from,\n            tokenId,\n            _data\n        ));\n        if (!success) {\n            if (returndata.length > 0) {\n                // solhint-disable-next-line no-inline-assembly\n                assembly {\n                    let returndata_size := mload(returndata)\n                    revert(add(32, returndata), returndata_size)\n                }\n            } else {\n                revert(\"ERC721: transfer to non ERC721Receiver implementer\");\n            }\n        } else {\n            bytes4 retval = abi.decode(returndata, (bytes4));\n            return (retval == _ERC721_RECEIVED);\n        }\n    }\n\n    function _approve(address to, uint256 tokenId) private {\n        _tokenApprovals[tokenId] = to;\n        emit Approval(ownerOf(tokenId), to, tokenId);\n    }\n\n    /**\n     * @dev Hook that is called before any token transfer. This includes minting\n     * and burning.\n     *\n     * Calling conditions:\n     *\n     * - When `from` and `to` are both non-zero, ``from``'s `tokenId` will be\n     * transferred to `to`.\n     * - When `from` is zero, `tokenId` will be minted for `to`.\n     * - When `to` is zero, ``from``'s `tokenId` will be burned.\n     * - `from` cannot be the zero address.\n     * - `to` cannot be the zero address.\n     *\n     * To learn more about hooks, head to xref:ROOT:extending-contracts.adoc#using-hooks[Using Hooks].\n     */\n    function _beforeTokenTransfer(address from, address to, uint256 tokenId) internal { }\n\n}\n",
  "sourcePath": "/home/deadblackclover/Projects/crosspunks-bsc-sc/contracts/CrossPunks.sol",
  "compiler": {
    "name": "solc",
    "version": "0.6.12+commit.27d51765.Emscripten.clang"
  },
  "schemaVersion": "3.4.3",
  "updatedAt": "2021-09-03T04:42:43.121Z",
  "networkType": "ethereum",
  "devdoc": {
    "details": "Extends ERC721 Non-Fungible Token Standard basic implementation",
    "kind": "dev",
    "methods": {
      "approve(address,uint256)": {
        "details": "See {IERC721-approve}."
      },
      "balanceOf(address)": {
        "details": "See {IERC721-balanceOf}."
      },
      "baseURI()": {
        "details": "Returns the base URI set via {_setBaseURI}. This will be automatically added as a prefix in {tokenURI} to each token's URI, or to the token ID if no specific URI is set for that token ID."
      },
      "constructor": {
        "details": "Initializes the contract by setting a `name` and a `symbol` to the token collection."
      },
      "getApproved(uint256)": {
        "details": "See {IERC721-getApproved}."
      },
      "getNFTPrice()": {
        "details": "Gets current CrossPunk Price"
      },
      "isApprovedForAll(address,address)": {
        "details": "See {IERC721-isApprovedForAll}."
      },
      "mintNFT(uint256)": {
        "details": "Mints CrossPunk"
      },
      "mintNFTAirDrop(uint256,uint256)": {
        "details": "Mints CrossPunk"
      },
      "name()": {
        "details": "See {IERC721Metadata-name}."
      },
      "owner()": {
        "details": "Returns the address of the current owner."
      },
      "ownerOf(uint256)": {
        "details": "See {IERC721-ownerOf}."
      },
      "renounceOwnership()": {
        "details": "Leaves the contract without owner. It will not be possible to call `onlyOwner` functions anymore. Can only be called by the current owner. NOTE: Renouncing ownership will leave the contract without an owner, thereby removing any functionality that is only available to the owner."
      },
      "safeTransferFrom(address,address,uint256)": {
        "details": "See {IERC721-safeTransferFrom}."
      },
      "safeTransferFrom(address,address,uint256,bytes)": {
        "details": "See {IERC721-safeTransferFrom}."
      },
      "setApprovalForAll(address,bool)": {
        "details": "See {IERC721-setApprovalForAll}."
      },
      "supportsInterface(bytes4)": {
        "details": "See {IERC165-supportsInterface}. Time complexity O(1), guaranteed to always use less than 30 000 gas."
      },
      "symbol()": {
        "details": "See {IERC721Metadata-symbol}."
      },
      "tokenByIndex(uint256)": {
        "details": "See {IERC721Enumerable-tokenByIndex}."
      },
      "tokenOfOwnerByIndex(address,uint256)": {
        "details": "See {IERC721Enumerable-tokenOfOwnerByIndex}."
      },
      "tokenURI(uint256)": {
        "details": "See {IERC721Metadata-tokenURI}."
      },
      "totalSupply()": {
        "details": "See {IERC721Enumerable-totalSupply}."
      },
      "transferFrom(address,address,uint256)": {
        "details": "See {IERC721-transferFrom}."
      },
      "transferOwnership(address)": {
        "details": "Transfers ownership of the contract to a new account (`newOwner`). Can only be called by the current owner."
      },
      "withdraw()": {
        "details": "Withdraw ether from this contract (Callable by owner)"
      }
    },
    "title": "CrossPunks contract",
    "version": 1
  },
  "userdoc": {
    "kind": "user",
    "methods": {},
    "version": 1
  }
}